{
  "_format": "hh-sol-artifact-1",
  "contractName": "MyEpicNFT",
  "sourceName": "contracts/MyEpicNFT.sol",
  "abi": [
    {
      "inputs": [],
      "stateMutability": "nonpayable",
      "type": "constructor"
    },
    {
      "anonymous": false,
      "inputs": [
        {
          "indexed": true,
          "internalType": "address",
          "name": "owner",
          "type": "address"
        },
        {
          "indexed": true,
          "internalType": "address",
          "name": "approved",
          "type": "address"
        },
        {
          "indexed": true,
          "internalType": "uint256",
          "name": "tokenId",
          "type": "uint256"
        }
      ],
      "name": "Approval",
      "type": "event"
    },
    {
      "anonymous": false,
      "inputs": [
        {
          "indexed": true,
          "internalType": "address",
          "name": "owner",
          "type": "address"
        },
        {
          "indexed": true,
          "internalType": "address",
          "name": "operator",
          "type": "address"
        },
        {
          "indexed": false,
          "internalType": "bool",
          "name": "approved",
          "type": "bool"
        }
      ],
      "name": "ApprovalForAll",
      "type": "event"
    },
    {
      "anonymous": false,
      "inputs": [
        {
          "indexed": false,
          "internalType": "address",
          "name": "sender",
          "type": "address"
        },
        {
          "indexed": false,
          "internalType": "uint256",
          "name": "tokenId",
          "type": "uint256"
        }
      ],
      "name": "NewEpicNFTMinted",
      "type": "event"
    },
    {
      "anonymous": false,
      "inputs": [
        {
          "indexed": true,
          "internalType": "address",
          "name": "from",
          "type": "address"
        },
        {
          "indexed": true,
          "internalType": "address",
          "name": "to",
          "type": "address"
        },
        {
          "indexed": true,
          "internalType": "uint256",
          "name": "tokenId",
          "type": "uint256"
        }
      ],
      "name": "Transfer",
      "type": "event"
    },
    {
      "inputs": [
        {
          "internalType": "address",
          "name": "to",
          "type": "address"
        },
        {
          "internalType": "uint256",
          "name": "tokenId",
          "type": "uint256"
        }
      ],
      "name": "approve",
      "outputs": [],
      "stateMutability": "nonpayable",
      "type": "function"
    },
    {
      "inputs": [
        {
          "internalType": "address",
          "name": "owner",
          "type": "address"
        }
      ],
      "name": "balanceOf",
      "outputs": [
        {
          "internalType": "uint256",
          "name": "",
          "type": "uint256"
        }
      ],
      "stateMutability": "view",
      "type": "function"
    },
    {
      "inputs": [
        {
          "internalType": "uint256",
          "name": "tokenId",
          "type": "uint256"
        }
      ],
      "name": "getApproved",
      "outputs": [
        {
          "internalType": "address",
          "name": "",
          "type": "address"
        }
      ],
      "stateMutability": "view",
      "type": "function"
    },
    {
      "inputs": [],
      "name": "getTotalNFTsMintedSoFar",
      "outputs": [
        {
          "internalType": "uint256",
          "name": "",
          "type": "uint256"
        }
      ],
      "stateMutability": "view",
      "type": "function"
    },
    {
      "inputs": [
        {
          "internalType": "address",
          "name": "owner",
          "type": "address"
        },
        {
          "internalType": "address",
          "name": "operator",
          "type": "address"
        }
      ],
      "name": "isApprovedForAll",
      "outputs": [
        {
          "internalType": "bool",
          "name": "",
          "type": "bool"
        }
      ],
      "stateMutability": "view",
      "type": "function"
    },
    {
      "inputs": [],
      "name": "makeAnEpicNFT",
      "outputs": [],
      "stateMutability": "nonpayable",
      "type": "function"
    },
    {
      "inputs": [],
      "name": "mintLimit",
      "outputs": [
        {
          "internalType": "uint16",
          "name": "",
          "type": "uint16"
        }
      ],
      "stateMutability": "view",
      "type": "function"
    },
    {
      "inputs": [],
      "name": "name",
      "outputs": [
        {
          "internalType": "string",
          "name": "",
          "type": "string"
        }
      ],
      "stateMutability": "view",
      "type": "function"
    },
    {
      "inputs": [
        {
          "internalType": "uint256",
          "name": "tokenId",
          "type": "uint256"
        }
      ],
      "name": "ownerOf",
      "outputs": [
        {
          "internalType": "address",
          "name": "",
          "type": "address"
        }
      ],
      "stateMutability": "view",
      "type": "function"
    },
    {
      "inputs": [
        {
          "internalType": "address",
          "name": "from",
          "type": "address"
        },
        {
          "internalType": "address",
          "name": "to",
          "type": "address"
        },
        {
          "internalType": "uint256",
          "name": "tokenId",
          "type": "uint256"
        }
      ],
      "name": "safeTransferFrom",
      "outputs": [],
      "stateMutability": "nonpayable",
      "type": "function"
    },
    {
      "inputs": [
        {
          "internalType": "address",
          "name": "from",
          "type": "address"
        },
        {
          "internalType": "address",
          "name": "to",
          "type": "address"
        },
        {
          "internalType": "uint256",
          "name": "tokenId",
          "type": "uint256"
        },
        {
          "internalType": "bytes",
          "name": "_data",
          "type": "bytes"
        }
      ],
      "name": "safeTransferFrom",
      "outputs": [],
      "stateMutability": "nonpayable",
      "type": "function"
    },
    {
      "inputs": [
        {
          "internalType": "address",
          "name": "operator",
          "type": "address"
        },
        {
          "internalType": "bool",
          "name": "approved",
          "type": "bool"
        }
      ],
      "name": "setApprovalForAll",
      "outputs": [],
      "stateMutability": "nonpayable",
      "type": "function"
    },
    {
      "inputs": [
        {
          "internalType": "bytes4",
          "name": "interfaceId",
          "type": "bytes4"
        }
      ],
      "name": "supportsInterface",
      "outputs": [
        {
          "internalType": "bool",
          "name": "",
          "type": "bool"
        }
      ],
      "stateMutability": "view",
      "type": "function"
    },
    {
      "inputs": [],
      "name": "symbol",
      "outputs": [
        {
          "internalType": "string",
          "name": "",
          "type": "string"
        }
      ],
      "stateMutability": "view",
      "type": "function"
    },
    {
      "inputs": [
        {
          "internalType": "uint256",
          "name": "tokenId",
          "type": "uint256"
        }
      ],
      "name": "tokenURI",
      "outputs": [
        {
          "internalType": "string",
          "name": "",
          "type": "string"
        }
      ],
      "stateMutability": "view",
      "type": "function"
    },
    {
      "inputs": [
        {
          "internalType": "address",
          "name": "from",
          "type": "address"
        },
        {
          "internalType": "address",
          "name": "to",
          "type": "address"
        },
        {
          "internalType": "uint256",
          "name": "tokenId",
          "type": "uint256"
        }
      ],
      "name": "transferFrom",
      "outputs": [],
      "stateMutability": "nonpayable",
      "type": "function"
    }
  ],
  "bytecode": "0x60806040526032600860006101000a81548161ffff021916908361ffff160217905550604051806101e001604052806040518060400160405280600981526020017f506f6c69746963616c000000000000000000000000000000000000000000000081525081526020016040518060400160405280600581526020017f576f6f7a7900000000000000000000000000000000000000000000000000000081525081526020016040518060400160405280600a81526020017f4e7574726974696f75730000000000000000000000000000000000000000000081525081526020016040518060400160405280600681526020017f416369646963000000000000000000000000000000000000000000000000000081525081526020016040518060400160405280600881526020017f496d6d696e656e7400000000000000000000000000000000000000000000000081525081526020016040518060400160405280600781526020017f5765616c7468790000000000000000000000000000000000000000000000000081525081526020016040518060400160405280600881526020017f446f75627466756c00000000000000000000000000000000000000000000000081525081526020016040518060400160405280600681526020017f4661756c7479000000000000000000000000000000000000000000000000000081525081526020016040518060400160405280600981526020017f5669766163696f7573000000000000000000000000000000000000000000000081525081526020016040518060400160405280600581526020017f466c616b7900000000000000000000000000000000000000000000000000000081525081526020016040518060400160405280600581526020017f476f646c7900000000000000000000000000000000000000000000000000000081525081526020016040518060400160405280600681526020017f456e74697265000000000000000000000000000000000000000000000000000081525081526020016040518060400160405280600881526020017f526f6d616e74696300000000000000000000000000000000000000000000000081525081526020016040518060400160405280600881526020017f4d696e646c65737300000000000000000000000000000000000000000000000081525081526020016040518060400160405280600a81526020017f456c656374726f6e696300000000000000000000000000000000000000000000815250815250600990600f620003b392919062000dca565b50604051806101e001604052806040518060400160405280600981526020017f5265616c6973746963000000000000000000000000000000000000000000000081525081526020016040518060400160405280600b81526020017f43616c63756c6174696e6700000000000000000000000000000000000000000081525081526020016040518060400160405280600681526020017f4d656c746564000000000000000000000000000000000000000000000000000081525081526020016040518060400160405280600481526020017f4d65616e0000000000000000000000000000000000000000000000000000000081525081526020016040518060400160405280600a81526020017f496d70726573736976650000000000000000000000000000000000000000000081525081526020016040518060400160405280600a81526020017f4576616e657363656e740000000000000000000000000000000000000000000081525081526020016040518060400160405280600981526020017f426f756e646c657373000000000000000000000000000000000000000000000081525081526020016040518060400160405280600681526020017f546177647279000000000000000000000000000000000000000000000000000081525081526020016040518060400160405280600881526020017f436f6e667573656400000000000000000000000000000000000000000000000081525081526020016040518060400160405280600581526020017f416c69766500000000000000000000000000000000000000000000000000000081525081526020016040518060400160405280600781526020017f467572746976650000000000000000000000000000000000000000000000000081525081526020016040518060400160405280600a81526020017f4f6d6e69736369656e740000000000000000000000000000000000000000000081525081526020016040518060400160405280600581526020017f507566667900000000000000000000000000000000000000000000000000000081525081526020016040518060400160405280600781526020017f4d7564646c65640000000000000000000000000000000000000000000000000081525081526020016040518060400160405280600b81526020017f456475636174696f6e616c000000000000000000000000000000000000000000815250815250600a90600f6200074592919062000dca565b50604051806101e001604052806040518060400160405280600681526020017f456e67696e65000000000000000000000000000000000000000000000000000081525081526020016040518060400160405280600781526020017f53657373696f6e0000000000000000000000000000000000000000000000000081525081526020016040518060400160405280600581526020017f4d7573696300000000000000000000000000000000000000000000000000000081525081526020016040518060400160405280600b81526020017f456e67696e656572696e6700000000000000000000000000000000000000000081525081526020016040518060400160405280600981526020017f486973746f7269616e000000000000000000000000000000000000000000000081525081526020016040518060400160405280600681526020017f576f726b6572000000000000000000000000000000000000000000000000000081525081526020016040518060400160405280600681526020017f5468726f6174000000000000000000000000000000000000000000000000000081525081526020016040518060400160405280600881526020017f536563757269747900000000000000000000000000000000000000000000000081525081526020016040518060400160405280600a81526020017f506f7373657373696f6e0000000000000000000000000000000000000000000081525081526020016040518060400160405280600481526020017f476f616c0000000000000000000000000000000000000000000000000000000081525081526020016040518060400160405280600581526020017f546f70696300000000000000000000000000000000000000000000000000000081525081526020016040518060400160405280600581526020017f486f6e657900000000000000000000000000000000000000000000000000000081525081526020016040518060400160405280600481526020017f4769726c0000000000000000000000000000000000000000000000000000000081525081526020016040518060400160405280600381526020017f576179000000000000000000000000000000000000000000000000000000000081525081526020016040518060400160405280600481526020017f4269726400000000000000000000000000000000000000000000000000000000815250815250600b90600f62000ad792919062000dca565b506040518060a001604052806040518060400160405280600581526020017f626c61636b00000000000000000000000000000000000000000000000000000081525081526020016040518060400160405280600481526020017f626c75650000000000000000000000000000000000000000000000000000000081525081526020016040518060400160405280600581526020017f677265656e00000000000000000000000000000000000000000000000000000081525081526020016040518060400160405280600381526020017f726564000000000000000000000000000000000000000000000000000000000081525081526020016040518060400160405280600681526020017f707572706c650000000000000000000000000000000000000000000000000000815250815250600c90600562000c1a92919062000e31565b5034801562000c2857600080fd5b506040518060400160405280600981526020017f5371756172654e465400000000000000000000000000000000000000000000008152506040518060400160405280600681526020017f5351554152450000000000000000000000000000000000000000000000000000815250816000908051906020019062000cad92919062000e98565b50806001908051906020019062000cc692919062000e98565b50505062000cf860405180606001604052806029815260200162004e626029913962000cfe60201b62000d5d1760201c565b620010e3565b62000d9e8160405160240162000d15919062000ff7565b6040516020818303038152906040527f41304fac000000000000000000000000000000000000000000000000000000007bffffffffffffffffffffffffffffffffffffffffffffffffffffffff19166020820180517bffffffffffffffffffffffffffffffffffffffffffffffffffffffff838183161783525050505062000da160201b60201c565b50565b60008151905060006a636f6e736f6c652e6c6f679050602083016000808483855afa5050505050565b82805482825590600052602060002090810192821562000e1e579160200282015b8281111562000e1d57825182908051906020019062000e0c92919062000e98565b509160200191906001019062000deb565b5b50905062000e2d919062000f29565b5090565b82805482825590600052602060002090810192821562000e85579160200282015b8281111562000e8457825182908051906020019062000e7392919062000e98565b509160200191906001019062000e52565b5b50905062000e94919062000f29565b5090565b82805462000ea6906200106d565b90600052602060002090601f01602090048101928262000eca576000855562000f16565b82601f1062000ee557805160ff191683800117855562000f16565b8280016001018555821562000f16579182015b8281111562000f1557825182559160200191906001019062000ef8565b5b50905062000f25919062000f51565b5090565b5b8082111562000f4d576000818162000f43919062000f70565b5060010162000f2a565b5090565b5b8082111562000f6c57600081600090555060010162000f52565b5090565b50805462000f7e906200106d565b6000825580601f1062000f92575062000fb3565b601f01602090049060005260206000209081019062000fb2919062000f51565b5b50565b600062000fc3826200101b565b62000fcf818562001026565b935062000fe181856020860162001037565b62000fec81620010d2565b840191505092915050565b6000602082019050818103600083015262001013818462000fb6565b905092915050565b600081519050919050565b600082825260208201905092915050565b60005b83811015620010575780820151818401526020810190506200103a565b8381111562001067576000848401525b50505050565b600060028204905060018216806200108657607f821691505b602082108114156200109d576200109c620010a3565b5b50919050565b7f4e487b7100000000000000000000000000000000000000000000000000000000600052602260045260246000fd5b6000601f19601f8301169050919050565b613d6f80620010f36000396000f3fe608060405234801561001057600080fd5b50600436106101005760003560e01c806370a0823111610097578063b88d4fde11610066578063b88d4fde146102ad578063c87b56dd146102c9578063de9d132f146102f9578063e985e9c51461030357610100565b806370a082311461022557806395d89b4114610255578063996517cf14610273578063a22cb4651461029157610100565b8063095ea7b3116100d3578063095ea7b3146101a157806323b872dd146101bd57806342842e0e146101d95780636352211e146101f557610100565b806301ffc9a714610105578063060475901461013557806306fdde0314610153578063081812fc14610171575b600080fd5b61011f600480360381019061011a919061274b565b610333565b60405161012c9190612dc3565b60405180910390f35b61013d610415565b60405161014a91906130b0565b60405180910390f35b61015b610426565b6040516101689190612dde565b60405180910390f35b61018b6004803603810190610186919061279d565b6104b8565b6040516101989190612d33565b60405180910390f35b6101bb60048036038101906101b6919061270f565b61053d565b005b6101d760048036038101906101d29190612609565b610655565b005b6101f360048036038101906101ee9190612609565b6106b5565b005b61020f600480360381019061020a919061279d565b6106d5565b60405161021c9190612d33565b60405180910390f35b61023f600480360381019061023a91906125a4565b610787565b60405161024c91906130b0565b60405180910390f35b61025d61083f565b60405161026a9190612dde565b60405180910390f35b61027b6108d1565b6040516102889190613095565b60405180910390f35b6102ab60048036038101906102a691906126d3565b6108e5565b005b6102c760048036038101906102c29190612658565b6108fb565b005b6102e360048036038101906102de919061279d565b61095d565b6040516102f09190612dde565b60405180910390f35b610301610aaf565b005b61031d600480360381019061031891906125cd565b610cc9565b60405161032a9190612dc3565b60405180910390f35b60007f80ac58cd000000000000000000000000000000000000000000000000000000007bffffffffffffffffffffffffffffffffffffffffffffffffffffffff1916827bffffffffffffffffffffffffffffffffffffffffffffffffffffffff191614806103fe57507f5b5e139f000000000000000000000000000000000000000000000000000000007bffffffffffffffffffffffffffffffffffffffffffffffffffffffff1916827bffffffffffffffffffffffffffffffffffffffffffffffffffffffff1916145b8061040e575061040d82610df6565b5b9050919050565b60006104216007610e60565b905090565b6060600080546104359061333d565b80601f01602080910402602001604051908101604052809291908181526020018280546104619061333d565b80156104ae5780601f10610483576101008083540402835291602001916104ae565b820191906000526020600020905b81548152906001019060200180831161049157829003601f168201915b5050505050905090565b60006104c382610e6e565b610502576040517f08c379a00000000000000000000000000000000000000000000000000000000081526004016104f990612ff5565b60405180910390fd5b6004600083815260200190815260200160002060009054906101000a900473ffffffffffffffffffffffffffffffffffffffff169050919050565b6000610548826106d5565b90508073ffffffffffffffffffffffffffffffffffffffff168373ffffffffffffffffffffffffffffffffffffffff1614156105b9576040517f08c379a00000000000000000000000000000000000000000000000000000000081526004016105b090613035565b60405180910390fd5b8073ffffffffffffffffffffffffffffffffffffffff166105d8610eda565b73ffffffffffffffffffffffffffffffffffffffff161480610607575061060681610601610eda565b610cc9565b5b610646576040517f08c379a000000000000000000000000000000000000000000000000000000000815260040161063d90612f35565b60405180910390fd5b6106508383610ee2565b505050565b610666610660610eda565b82610f9b565b6106a5576040517f08c379a000000000000000000000000000000000000000000000000000000000815260040161069c90613055565b60405180910390fd5b6106b0838383611079565b505050565b6106d0838383604051806020016040528060008152506108fb565b505050565b6000806002600084815260200190815260200160002060009054906101000a900473ffffffffffffffffffffffffffffffffffffffff169050600073ffffffffffffffffffffffffffffffffffffffff168173ffffffffffffffffffffffffffffffffffffffff16141561077e576040517f08c379a000000000000000000000000000000000000000000000000000000000815260040161077590612f75565b60405180910390fd5b80915050919050565b60008073ffffffffffffffffffffffffffffffffffffffff168273ffffffffffffffffffffffffffffffffffffffff1614156107f8576040517f08c379a00000000000000000000000000000000000000000000000000000000081526004016107ef90612f55565b60405180910390fd5b600360008373ffffffffffffffffffffffffffffffffffffffff1673ffffffffffffffffffffffffffffffffffffffff168152602001908152602001600020549050919050565b60606001805461084e9061333d565b80601f016020809104026020016040519081016040528092919081815260200182805461087a9061333d565b80156108c75780601f1061089c576101008083540402835291602001916108c7565b820191906000526020600020905b8154815290600101906020018083116108aa57829003601f168201915b5050505050905090565b600860009054906101000a900461ffff1681565b6108f76108f0610eda565b83836112e0565b5050565b61090c610906610eda565b83610f9b565b61094b576040517f08c379a000000000000000000000000000000000000000000000000000000000815260040161094290613055565b60405180910390fd5b6109578484848461144d565b50505050565b606061096882610e6e565b6109a7576040517f08c379a000000000000000000000000000000000000000000000000000000000815260040161099e90612fd5565b60405180910390fd5b60006006600084815260200190815260200160002080546109c79061333d565b80601f01602080910402602001604051908101604052809291908181526020018280546109f39061333d565b8015610a405780601f10610a1557610100808354040283529160200191610a40565b820191906000526020600020905b815481529060010190602001808311610a2357829003601f168201915b505050505090506000610a516114a9565b9050600081511415610a67578192505050610aaa565b600082511115610a9c578082604051602001610a84929190612c27565b60405160208183030381529060405292505050610aaa565b610aa5846114c0565b925050505b919050565b6000610abb6007610e60565b9050600860009054906101000a900461ffff1661ffff16811115610b14576040517f08c379a0000000000000000000000000000000000000000000000000000000008152600401610b0b90613075565b60405180910390fd5b610b1e3382611567565b610b41604051806060016040528060258152602001613cd5602591398233611585565b6000610b4c82611624565b610b558361173e565b610b5e84611858565b604051602001610b7093929190612c4b565b60405160208183030381529060405290506000610b8c83611972565b90506000610b9a8284611a8c565b9050600083610ba883611ab8565b604051602001610bb9929190612c7c565b60405160208183030381529060405290506000610bd582611ab8565b604051602001610be59190612d11565b6040516020818303038152906040529050610c356040518060400160405280600781526020017f5356473a2025730000000000000000000000000000000000000000000000000081525084611c76565b610c746040518060400160405280600c81526020017f546f6b656e5552493a202573000000000000000000000000000000000000000081525082611c76565b610c7e8682611d12565b610c886007611d86565b7febb98688741ffa4c7589bf325de30cf7becb63de567842e1ccdb6cb949fdc82c3387604051610cb9929190612d9a565b60405180910390a1505050505050565b6000600560008473ffffffffffffffffffffffffffffffffffffffff1673ffffffffffffffffffffffffffffffffffffffff16815260200190815260200160002060008373ffffffffffffffffffffffffffffffffffffffff1673ffffffffffffffffffffffffffffffffffffffff16815260200190815260200160002060009054906101000a900460ff16905092915050565b610df381604051602401610d719190612dde565b6040516020818303038152906040527f41304fac000000000000000000000000000000000000000000000000000000007bffffffffffffffffffffffffffffffffffffffffffffffffffffffff19166020820180517bffffffffffffffffffffffffffffffffffffffffffffffffffffffff8381831617835250505050611d9c565b50565b60007f01ffc9a7000000000000000000000000000000000000000000000000000000007bffffffffffffffffffffffffffffffffffffffffffffffffffffffff1916827bffffffffffffffffffffffffffffffffffffffffffffffffffffffff1916149050919050565b600081600001549050919050565b60008073ffffffffffffffffffffffffffffffffffffffff166002600084815260200190815260200160002060009054906101000a900473ffffffffffffffffffffffffffffffffffffffff1673ffffffffffffffffffffffffffffffffffffffff1614159050919050565b600033905090565b816004600083815260200190815260200160002060006101000a81548173ffffffffffffffffffffffffffffffffffffffff021916908373ffffffffffffffffffffffffffffffffffffffff160217905550808273ffffffffffffffffffffffffffffffffffffffff16610f55836106d5565b73ffffffffffffffffffffffffffffffffffffffff167f8c5be1e5ebec7d5bd14f71427d1e84f3dd0314c0f7b2291e5b200ac8c7c3b92560405160405180910390a45050565b6000610fa682610e6e565b610fe5576040517f08c379a0000000000000000000000000000000000000000000000000000000008152600401610fdc90612f15565b60405180910390fd5b6000610ff0836106d5565b90508073ffffffffffffffffffffffffffffffffffffffff168473ffffffffffffffffffffffffffffffffffffffff16148061105f57508373ffffffffffffffffffffffffffffffffffffffff16611047846104b8565b73ffffffffffffffffffffffffffffffffffffffff16145b80611070575061106f8185610cc9565b5b91505092915050565b8273ffffffffffffffffffffffffffffffffffffffff16611099826106d5565b73ffffffffffffffffffffffffffffffffffffffff16146110ef576040517f08c379a00000000000000000000000000000000000000000000000000000000081526004016110e690612e95565b60405180910390fd5b600073ffffffffffffffffffffffffffffffffffffffff168273ffffffffffffffffffffffffffffffffffffffff16141561115f576040517f08c379a000000000000000000000000000000000000000000000000000000000815260040161115690612ed5565b60405180910390fd5b61116a838383611dc5565b611175600082610ee2565b6001600360008573ffffffffffffffffffffffffffffffffffffffff1673ffffffffffffffffffffffffffffffffffffffff16815260200190815260200160002060008282546111c59190613245565b925050819055506001600360008473ffffffffffffffffffffffffffffffffffffffff1673ffffffffffffffffffffffffffffffffffffffff168152602001908152602001600020600082825461121c9190613164565b92505081905550816002600083815260200190815260200160002060006101000a81548173ffffffffffffffffffffffffffffffffffffffff021916908373ffffffffffffffffffffffffffffffffffffffff160217905550808273ffffffffffffffffffffffffffffffffffffffff168473ffffffffffffffffffffffffffffffffffffffff167fddf252ad1be2c89b69c2b068fc378daa952ba7f163c4a11628f55a4df523b3ef60405160405180910390a46112db838383611dca565b505050565b8173ffffffffffffffffffffffffffffffffffffffff168373ffffffffffffffffffffffffffffffffffffffff16141561134f576040517f08c379a000000000000000000000000000000000000000000000000000000000815260040161134690612ef5565b60405180910390fd5b80600560008573ffffffffffffffffffffffffffffffffffffffff1673ffffffffffffffffffffffffffffffffffffffff16815260200190815260200160002060008473ffffffffffffffffffffffffffffffffffffffff1673ffffffffffffffffffffffffffffffffffffffff16815260200190815260200160002060006101000a81548160ff0219169083151502179055508173ffffffffffffffffffffffffffffffffffffffff168373ffffffffffffffffffffffffffffffffffffffff167f17307eab39ab6107e8899845ad3d59bd9653f200f220920489ca2b5937696c31836040516114409190612dc3565b60405180910390a3505050565b611458848484611079565b61146484848484611dcf565b6114a3576040517f08c379a000000000000000000000000000000000000000000000000000000000815260040161149a90612e75565b60405180910390fd5b50505050565b606060405180602001604052806000815250905090565b60606114cb82610e6e565b61150a576040517f08c379a000000000000000000000000000000000000000000000000000000000815260040161150190613015565b60405180910390fd5b60006115146114a9565b90506000815111611534576040518060200160405280600081525061155f565b8061153e84611f66565b60405160200161154f929190612c27565b6040516020818303038152906040525b915050919050565b611581828260405180602001604052806000815250612113565b5050565b61161f83838360405160240161159d93929190612e37565b6040516020818303038152906040527fe3849f79000000000000000000000000000000000000000000000000000000007bffffffffffffffffffffffffffffffffffffffffffffffffffffffff19166020820180517bffffffffffffffffffffffffffffffffffffffffffffffffffffffff8381831617835250505050611d9c565b505050565b6060611737826009805480602002602001604051908101604052809291908181526020016000905b828210156116f857838290600052602060002001805461166b9061333d565b80601f01602080910402602001604051908101604052809291908181526020018280546116979061333d565b80156116e45780601f106116b9576101008083540402835291602001916116e4565b820191906000526020600020905b8154815290600101906020018083116116c757829003601f168201915b50505050508152602001906001019061164c565b505050506040518060400160405280600a81526020017f46495253545f574f52440000000000000000000000000000000000000000000081525061216e565b9050919050565b606061185182600a805480602002602001604051908101604052809291908181526020016000905b828210156118125783829060005260206000200180546117859061333d565b80601f01602080910402602001604051908101604052809291908181526020018280546117b19061333d565b80156117fe5780601f106117d3576101008083540402835291602001916117fe565b820191906000526020600020905b8154815290600101906020018083116117e157829003601f168201915b505050505081526020019060010190611766565b505050506040518060400160405280600b81526020017f5345434f4e445f574f524400000000000000000000000000000000000000000081525061216e565b9050919050565b606061196b82600b805480602002602001604051908101604052809291908181526020016000905b8282101561192c57838290600052602060002001805461189f9061333d565b80601f01602080910402602001604051908101604052809291908181526020018280546118cb9061333d565b80156119185780601f106118ed57610100808354040283529160200191611918565b820191906000526020600020905b8154815290600101906020018083116118fb57829003601f168201915b505050505081526020019060010190611880565b505050506040518060400160405280600a81526020017f54484952445f574f52440000000000000000000000000000000000000000000081525061216e565b9050919050565b6060611a8582600c805480602002602001604051908101604052809291908181526020016000905b82821015611a465783829060005260206000200180546119b99061333d565b80601f01602080910402602001604051908101604052809291908181526020018280546119e59061333d565b8015611a325780601f10611a0757610100808354040283529160200191611a32565b820191906000526020600020905b815481529060010190602001808311611a1557829003601f168201915b50505050508152602001906001019061199a565b505050506040518060400160405280600581526020017f434f4c4f5200000000000000000000000000000000000000000000000000000081525061216e565b9050919050565b60608282604051602001611aa1929190612ccc565b604051602081830303815290604052905092915050565b60606000825190506000811415611ae15760405180602001604052806000815250915050611c71565b60006003600283611af29190613164565b611afc91906131ba565b6004611b0891906131eb565b90506000602082611b199190613164565b67ffffffffffffffff811115611b58577f4e487b7100000000000000000000000000000000000000000000000000000000600052604160045260246000fd5b6040519080825280601f01601f191660200182016040528015611b8a5781602001600182028036833780820191505090505b5090506000604051806060016040528060408152602001613cfa604091399050600181016020830160005b86811015611c2e5760038101905062ffffff818a015116603f8160121c168401518060081b905060ff603f83600c1c1686015116810190508060081b905060ff603f8360061c1686015116810190508060081b905060ff603f831686015116810190508060e01b90508084526004840193505050611bb5565b506003860660018114611c485760028114611c5857611c63565b613d3d60f01b6002830352611c63565b603d60f81b60018303525b508484525050819450505050505b919050565b611d0e8282604051602401611c8c929190612e00565b6040516020818303038152906040527f4b5c4277000000000000000000000000000000000000000000000000000000007bffffffffffffffffffffffffffffffffffffffffffffffffffffffff19166020820180517bffffffffffffffffffffffffffffffffffffffffffffffffffffffff8381831617835250505050611d9c565b5050565b611d1b82610e6e565b611d5a576040517f08c379a0000000000000000000000000000000000000000000000000000000008152600401611d5190612f95565b60405180910390fd5b80600660008481526020019081526020016000209080519060200190611d81929190612430565b505050565b6001816000016000828254019250508190555050565b60008151905060006a636f6e736f6c652e6c6f679050602083016000808483855afa5050505050565b505050565b505050565b6000611df08473ffffffffffffffffffffffffffffffffffffffff16612200565b15611f59578373ffffffffffffffffffffffffffffffffffffffff1663150b7a02611e19610eda565b8786866040518563ffffffff1660e01b8152600401611e3b9493929190612d4e565b602060405180830381600087803b158015611e5557600080fd5b505af1925050508015611e8657506040513d601f19601f82011682018060405250810190611e839190612774565b60015b611f09573d8060008114611eb6576040519150601f19603f3d011682016040523d82523d6000602084013e611ebb565b606091505b50600081511415611f01576040517f08c379a0000000000000000000000000000000000000000000000000000000008152600401611ef890612e75565b60405180910390fd5b805181602001fd5b63150b7a0260e01b7bffffffffffffffffffffffffffffffffffffffffffffffffffffffff1916817bffffffffffffffffffffffffffffffffffffffffffffffffffffffff191614915050611f5e565b600190505b949350505050565b60606000821415611fae576040518060400160405280600181526020017f3000000000000000000000000000000000000000000000000000000000000000815250905061210e565b600082905060005b60008214611fe0578080611fc9906133a0565b915050600a82611fd991906131ba565b9150611fb6565b60008167ffffffffffffffff811115612022577f4e487b7100000000000000000000000000000000000000000000000000000000600052604160045260246000fd5b6040519080825280601f01601f1916602001820160405280156120545781602001600182028036833780820191505090505b5090505b600085146121075760018261206d9190613245565b9150600a8561207c91906133e9565b60306120889190613164565b60f81b8183815181106120c4577f4e487b7100000000000000000000000000000000000000000000000000000000600052603260045260246000fd5b60200101907effffffffffffffffffffffffffffffffffffffffffffffffffffffffffffff1916908160001a905350600a8561210091906131ba565b9450612058565b8093505050505b919050565b61211d8383612223565b61212a6000848484611dcf565b612169576040517f08c379a000000000000000000000000000000000000000000000000000000000815260040161216090612e75565b60405180910390fd5b505050565b606060006121a48361217f87611f66565b604051602001612190929190612c27565b6040516020818303038152906040526123fd565b90508351816121b391906133e9565b90508381815181106121ee577f4e487b7100000000000000000000000000000000000000000000000000000000600052603260045260246000fd5b60200260200101519150509392505050565b6000808273ffffffffffffffffffffffffffffffffffffffff163b119050919050565b600073ffffffffffffffffffffffffffffffffffffffff168273ffffffffffffffffffffffffffffffffffffffff161415612293576040517f08c379a000000000000000000000000000000000000000000000000000000000815260040161228a90612fb5565b60405180910390fd5b61229c81610e6e565b156122dc576040517f08c379a00000000000000000000000000000000000000000000000000000000081526004016122d390612eb5565b60405180910390fd5b6122e860008383611dc5565b6001600360008473ffffffffffffffffffffffffffffffffffffffff1673ffffffffffffffffffffffffffffffffffffffff16815260200190815260200160002060008282546123389190613164565b92505081905550816002600083815260200190815260200160002060006101000a81548173ffffffffffffffffffffffffffffffffffffffff021916908373ffffffffffffffffffffffffffffffffffffffff160217905550808273ffffffffffffffffffffffffffffffffffffffff16600073ffffffffffffffffffffffffffffffffffffffff167fddf252ad1be2c89b69c2b068fc378daa952ba7f163c4a11628f55a4df523b3ef60405160405180910390a46123f960008383611dca565b5050565b6000816040516020016124109190612c10565b6040516020818303038152906040528051906020012060001c9050919050565b82805461243c9061333d565b90600052602060002090601f01602090048101928261245e57600085556124a5565b82601f1061247757805160ff19168380011785556124a5565b828001600101855582156124a5579182015b828111156124a4578251825591602001919060010190612489565b5b5090506124b291906124b6565b5090565b5b808211156124cf5760008160009055506001016124b7565b5090565b60006124e66124e1846130f0565b6130cb565b9050828152602081018484840111156124fe57600080fd5b6125098482856132fb565b509392505050565b60008135905061252081613c78565b92915050565b60008135905061253581613c8f565b92915050565b60008135905061254a81613ca6565b92915050565b60008151905061255f81613ca6565b92915050565b600082601f83011261257657600080fd5b81356125868482602086016124d3565b91505092915050565b60008135905061259e81613cbd565b92915050565b6000602082840312156125b657600080fd5b60006125c484828501612511565b91505092915050565b600080604083850312156125e057600080fd5b60006125ee85828601612511565b92505060206125ff85828601612511565b9150509250929050565b60008060006060848603121561261e57600080fd5b600061262c86828701612511565b935050602061263d86828701612511565b925050604061264e8682870161258f565b9150509250925092565b6000806000806080858703121561266e57600080fd5b600061267c87828801612511565b945050602061268d87828801612511565b935050604061269e8782880161258f565b925050606085013567ffffffffffffffff8111156126bb57600080fd5b6126c787828801612565565b91505092959194509250565b600080604083850312156126e657600080fd5b60006126f485828601612511565b925050602061270585828601612526565b9150509250929050565b6000806040838503121561272257600080fd5b600061273085828601612511565b92505060206127418582860161258f565b9150509250929050565b60006020828403121561275d57600080fd5b600061276b8482850161253b565b91505092915050565b60006020828403121561278657600080fd5b600061279484828501612550565b91505092915050565b6000602082840312156127af57600080fd5b60006127bd8482850161258f565b91505092915050565b6127cf81613279565b82525050565b6127de8161328b565b82525050565b60006127ef82613121565b6127f98185613137565b935061280981856020860161330a565b612812816134d6565b840191505092915050565b60006128288261312c565b6128328185613148565b935061284281856020860161330a565b61284b816134d6565b840191505092915050565b60006128618261312c565b61286b8185613159565b935061287b81856020860161330a565b80840191505092915050565b6000612894603283613148565b915061289f826134e7565b604082019050919050565b60006128b7602583613148565b91506128c282613536565b604082019050919050565b60006128da600b83613159565b91506128e582613585565b600b82019050919050565b60006128fd601c83613148565b9150612908826135ae565b602082019050919050565b6000612920602483613148565b915061292b826135d7565b604082019050919050565b6000612943601983613148565b915061294e82613626565b602082019050919050565b6000612966600383613159565b91506129718261364f565b600382019050919050565b6000612989604883613159565b915061299482613678565b604882019050919050565b60006129ac602c83613148565b91506129b7826136ed565b604082019050919050565b60006129cf600d83613159565b91506129da8261373c565b600d82019050919050565b60006129f2603883613148565b91506129fd82613765565b604082019050919050565b6000612a1560d383613159565b9150612a20826137b4565b60d382019050919050565b6000612a38602a83613148565b9150612a43826138c1565b604082019050919050565b6000612a5b602983613148565b9150612a6682613910565b604082019050919050565b6000612a7e602e83613148565b9150612a898261395f565b604082019050919050565b6000612aa1602483613159565b9150612aac826139ae565b602482019050919050565b6000612ac4602083613148565b9150612acf826139fd565b602082019050919050565b6000612ae7603183613148565b9150612af282613a26565b604082019050919050565b6000612b0a602c83613148565b9150612b1582613a75565b604082019050919050565b6000612b2d602f83613148565b9150612b3882613ac4565b604082019050919050565b6000612b50605783613159565b9150612b5b82613b13565b605782019050919050565b6000612b73602183613148565b9150612b7e82613b88565b604082019050919050565b6000612b96601d83613159565b9150612ba182613bd7565b601d82019050919050565b6000612bb9603183613148565b9150612bc482613c00565b604082019050919050565b6000612bdc601783613148565b9150612be782613c4f565b602082019050919050565b612bfb816132c3565b82525050565b612c0a816132f1565b82525050565b6000612c1c8284612856565b915081905092915050565b6000612c338285612856565b9150612c3f8284612856565b91508190509392505050565b6000612c578286612856565b9150612c638285612856565b9150612c6f8284612856565b9150819050949350505050565b6000612c87826128cd565b9150612c938285612856565b9150612c9e8261297c565b9150612ca982612a94565b9150612cb58284612856565b9150612cc082612959565b91508190509392505050565b6000612cd782612a08565b9150612ce38285612856565b9150612cee82612b43565b9150612cfa8284612856565b9150612d05826129c2565b91508190509392505050565b6000612d1c82612b89565b9150612d288284612856565b915081905092915050565b6000602082019050612d4860008301846127c6565b92915050565b6000608082019050612d6360008301876127c6565b612d7060208301866127c6565b612d7d6040830185612c01565b8181036060830152612d8f81846127e4565b905095945050505050565b6000604082019050612daf60008301856127c6565b612dbc6020830184612c01565b9392505050565b6000602082019050612dd860008301846127d5565b92915050565b60006020820190508181036000830152612df8818461281d565b905092915050565b60006040820190508181036000830152612e1a818561281d565b90508181036020830152612e2e818461281d565b90509392505050565b60006060820190508181036000830152612e51818661281d565b9050612e606020830185612c01565b612e6d60408301846127c6565b949350505050565b60006020820190508181036000830152612e8e81612887565b9050919050565b60006020820190508181036000830152612eae816128aa565b9050919050565b60006020820190508181036000830152612ece816128f0565b9050919050565b60006020820190508181036000830152612eee81612913565b9050919050565b60006020820190508181036000830152612f0e81612936565b9050919050565b60006020820190508181036000830152612f2e8161299f565b9050919050565b60006020820190508181036000830152612f4e816129e5565b9050919050565b60006020820190508181036000830152612f6e81612a2b565b9050919050565b60006020820190508181036000830152612f8e81612a4e565b9050919050565b60006020820190508181036000830152612fae81612a71565b9050919050565b60006020820190508181036000830152612fce81612ab7565b9050919050565b60006020820190508181036000830152612fee81612ada565b9050919050565b6000602082019050818103600083015261300e81612afd565b9050919050565b6000602082019050818103600083015261302e81612b20565b9050919050565b6000602082019050818103600083015261304e81612b66565b9050919050565b6000602082019050818103600083015261306e81612bac565b9050919050565b6000602082019050818103600083015261308e81612bcf565b9050919050565b60006020820190506130aa6000830184612bf2565b92915050565b60006020820190506130c56000830184612c01565b92915050565b60006130d56130e6565b90506130e1828261336f565b919050565b6000604051905090565b600067ffffffffffffffff82111561310b5761310a6134a7565b5b613114826134d6565b9050602081019050919050565b600081519050919050565b600081519050919050565b600082825260208201905092915050565b600082825260208201905092915050565b600081905092915050565b600061316f826132f1565b915061317a836132f1565b9250827fffffffffffffffffffffffffffffffffffffffffffffffffffffffffffffffff038211156131af576131ae61341a565b5b828201905092915050565b60006131c5826132f1565b91506131d0836132f1565b9250826131e0576131df613449565b5b828204905092915050565b60006131f6826132f1565b9150613201836132f1565b9250817fffffffffffffffffffffffffffffffffffffffffffffffffffffffffffffffff048311821515161561323a5761323961341a565b5b828202905092915050565b6000613250826132f1565b915061325b836132f1565b92508282101561326e5761326d61341a565b5b828203905092915050565b6000613284826132d1565b9050919050565b60008115159050919050565b60007fffffffff0000000000000000000000000000000000000000000000000000000082169050919050565b600061ffff82169050919050565b600073ffffffffffffffffffffffffffffffffffffffff82169050919050565b6000819050919050565b82818337600083830152505050565b60005b8381101561332857808201518184015260208101905061330d565b83811115613337576000848401525b50505050565b6000600282049050600182168061335557607f821691505b6020821081141561336957613368613478565b5b50919050565b613378826134d6565b810181811067ffffffffffffffff82111715613397576133966134a7565b5b80604052505050565b60006133ab826132f1565b91507fffffffffffffffffffffffffffffffffffffffffffffffffffffffffffffffff8214156133de576133dd61341a565b5b600182019050919050565b60006133f4826132f1565b91506133ff836132f1565b92508261340f5761340e613449565b5b828206905092915050565b7f4e487b7100000000000000000000000000000000000000000000000000000000600052601160045260246000fd5b7f4e487b7100000000000000000000000000000000000000000000000000000000600052601260045260246000fd5b7f4e487b7100000000000000000000000000000000000000000000000000000000600052602260045260246000fd5b7f4e487b7100000000000000000000000000000000000000000000000000000000600052604160045260246000fd5b6000601f19601f8301169050919050565b7f4552433732313a207472616e7366657220746f206e6f6e20455243373231526560008201527f63656976657220696d706c656d656e7465720000000000000000000000000000602082015250565b7f4552433732313a207472616e736665722066726f6d20696e636f72726563742060008201527f6f776e6572000000000000000000000000000000000000000000000000000000602082015250565b7f7b20226e616d65223a2022000000000000000000000000000000000000000000600082015250565b7f4552433732313a20746f6b656e20616c7265616479206d696e74656400000000600082015250565b7f4552433732313a207472616e7366657220746f20746865207a65726f2061646460008201527f7265737300000000000000000000000000000000000000000000000000000000602082015250565b7f4552433732313a20617070726f766520746f2063616c6c657200000000000000600082015250565b7f22207d0000000000000000000000000000000000000000000000000000000000600082015250565b7f222c20226465736372697074696f6e223a2022416e204e46542066726f6d207460008201527f686520686967686c79206163636c61696d65642073717561726520636f6c6c6560208201527f6374696f6e222c20000000000000000000000000000000000000000000000000604082015250565b7f4552433732313a206f70657261746f7220717565727920666f72206e6f6e657860008201527f697374656e7420746f6b656e0000000000000000000000000000000000000000602082015250565b7f3c2f746578743e3c2f7376673e00000000000000000000000000000000000000600082015250565b7f4552433732313a20617070726f76652063616c6c6572206973206e6f74206f7760008201527f6e6572206e6f7220617070726f76656420666f7220616c6c0000000000000000602082015250565b7f3c73766720786d6c6e733d27687474703a2f2f7777772e77332e6f72672f323060008201527f30302f73766727207072657365727665417370656374526174696f3d27784d6960208201527f6e594d696e206d656574272076696577426f783d27302030203335302033353060408201527f273e3c7374796c653e2e62617365207b2066696c6c3a2077686974653b20666f60608201527f6e742d66616d696c793a2073657269663b20666f6e742d73697a653a2032347060808201527f783b207d3c2f7374796c653e3c726563742077696474683d273130302527206860a08201527f65696768743d2731303025272066696c6c3d270000000000000000000000000060c082015250565b7f4552433732313a2062616c616e636520717565727920666f7220746865207a6560008201527f726f206164647265737300000000000000000000000000000000000000000000602082015250565b7f4552433732313a206f776e657220717565727920666f72206e6f6e657869737460008201527f656e7420746f6b656e0000000000000000000000000000000000000000000000602082015250565b7f45524337323155524953746f726167653a2055524920736574206f66206e6f6e60008201527f6578697374656e7420746f6b656e000000000000000000000000000000000000602082015250565b7f22696d616765223a2022646174613a696d6167652f7376672b786d6c3b62617360008201527f6536342c00000000000000000000000000000000000000000000000000000000602082015250565b7f4552433732313a206d696e7420746f20746865207a65726f2061646472657373600082015250565b7f45524337323155524953746f726167653a2055524920717565727920666f722060008201527f6e6f6e6578697374656e7420746f6b656e000000000000000000000000000000602082015250565b7f4552433732313a20617070726f76656420717565727920666f72206e6f6e657860008201527f697374656e7420746f6b656e0000000000000000000000000000000000000000602082015250565b7f4552433732314d657461646174613a2055524920717565727920666f72206e6f60008201527f6e6578697374656e7420746f6b656e0000000000000000000000000000000000602082015250565b7f27202f3e3c7465787420783d273530252720793d273530252720636c6173733d60008201527f27626173652720646f6d696e616e742d626173656c696e653d276d6964646c6560208201527f2720746578742d616e63686f723d276d6964646c65273e000000000000000000604082015250565b7f4552433732313a20617070726f76616c20746f2063757272656e74206f776e6560008201527f7200000000000000000000000000000000000000000000000000000000000000602082015250565b7f646174613a6170706c69636174696f6e2f6a736f6e3b6261736536342c000000600082015250565b7f4552433732313a207472616e736665722063616c6c6572206973206e6f74206f60008201527f776e6572206e6f7220617070726f766564000000000000000000000000000000602082015250565b7f4e6f206d6f7265204e46545320617661696c61626c6573000000000000000000600082015250565b613c8181613279565b8114613c8c57600080fd5b50565b613c988161328b565b8114613ca357600080fd5b50565b613caf81613297565b8114613cba57600080fd5b50565b613cc6816132f1565b8114613cd157600080fd5b5056fe416e204e465420772f20494420256420686173206265656e206d696e74656420746f2025734142434445464748494a4b4c4d4e4f505152535455565758595a6162636465666768696a6b6c6d6e6f707172737475767778797a303132333435363738392b2fa2646970667358221220e45f42ecf8638e206eb96d1c7d4bf536c75fac87273c216bb48462798486fe2364736f6c6343000801003354686973206973206d79204e4654204570696320547269707320636f6e74726163742e20576f616821",
  "linkReferences": {},
  "deployedLinkReferences": {}
}