{
  "_format": "hh-sol-artifact-1",
  "contractName": "MyEpicNFT",
  "sourceName": "contracts/MyEpicNFT.sol",
  "abi": [
    {
      "inputs": [],
      "stateMutability": "nonpayable",
      "type": "constructor"
    },
    {
      "anonymous": false,
      "inputs": [
        {
          "indexed": true,
          "internalType": "address",
          "name": "owner",
          "type": "address"
        },
        {
          "indexed": true,
          "internalType": "address",
          "name": "approved",
          "type": "address"
        },
        {
          "indexed": true,
          "internalType": "uint256",
          "name": "tokenId",
          "type": "uint256"
        }
      ],
      "name": "Approval",
      "type": "event"
    },
    {
      "anonymous": false,
      "inputs": [
        {
          "indexed": true,
          "internalType": "address",
          "name": "owner",
          "type": "address"
        },
        {
          "indexed": true,
          "internalType": "address",
          "name": "operator",
          "type": "address"
        },
        {
          "indexed": false,
          "internalType": "bool",
          "name": "approved",
          "type": "bool"
        }
      ],
      "name": "ApprovalForAll",
      "type": "event"
    },
    {
      "anonymous": false,
      "inputs": [
        {
          "indexed": false,
          "internalType": "address",
          "name": "sender",
          "type": "address"
        },
        {
          "indexed": false,
          "internalType": "uint256",
          "name": "tokenId",
          "type": "uint256"
        }
      ],
      "name": "NewEpicNFTMinted",
      "type": "event"
    },
    {
      "anonymous": false,
      "inputs": [
        {
          "indexed": true,
          "internalType": "address",
          "name": "from",
          "type": "address"
        },
        {
          "indexed": true,
          "internalType": "address",
          "name": "to",
          "type": "address"
        },
        {
          "indexed": true,
          "internalType": "uint256",
          "name": "tokenId",
          "type": "uint256"
        }
      ],
      "name": "Transfer",
      "type": "event"
    },
    {
      "inputs": [
        {
          "internalType": "address",
          "name": "to",
          "type": "address"
        },
        {
          "internalType": "uint256",
          "name": "tokenId",
          "type": "uint256"
        }
      ],
      "name": "approve",
      "outputs": [],
      "stateMutability": "nonpayable",
      "type": "function"
    },
    {
      "inputs": [
        {
          "internalType": "address",
          "name": "owner",
          "type": "address"
        }
      ],
      "name": "balanceOf",
      "outputs": [
        {
          "internalType": "uint256",
          "name": "",
          "type": "uint256"
        }
      ],
      "stateMutability": "view",
      "type": "function"
    },
    {
      "inputs": [
        {
          "internalType": "uint256",
          "name": "tokenId",
          "type": "uint256"
        }
      ],
      "name": "getApproved",
      "outputs": [
        {
          "internalType": "address",
          "name": "",
          "type": "address"
        }
      ],
      "stateMutability": "view",
      "type": "function"
    },
    {
      "inputs": [],
      "name": "getTotalNFTsMintedSoFar",
      "outputs": [
        {
          "internalType": "uint256",
          "name": "",
          "type": "uint256"
        }
      ],
      "stateMutability": "view",
      "type": "function"
    },
    {
      "inputs": [
        {
          "internalType": "address",
          "name": "owner",
          "type": "address"
        },
        {
          "internalType": "address",
          "name": "operator",
          "type": "address"
        }
      ],
      "name": "isApprovedForAll",
      "outputs": [
        {
          "internalType": "bool",
          "name": "",
          "type": "bool"
        }
      ],
      "stateMutability": "view",
      "type": "function"
    },
    {
      "inputs": [],
      "name": "makeAnEpicNFT",
      "outputs": [],
      "stateMutability": "nonpayable",
      "type": "function"
    },
    {
      "inputs": [],
      "name": "mintLimit",
      "outputs": [
        {
          "internalType": "uint256",
          "name": "",
          "type": "uint256"
        }
      ],
      "stateMutability": "view",
      "type": "function"
    },
    {
      "inputs": [],
      "name": "name",
      "outputs": [
        {
          "internalType": "string",
          "name": "",
          "type": "string"
        }
      ],
      "stateMutability": "view",
      "type": "function"
    },
    {
      "inputs": [
        {
          "internalType": "uint256",
          "name": "tokenId",
          "type": "uint256"
        }
      ],
      "name": "ownerOf",
      "outputs": [
        {
          "internalType": "address",
          "name": "",
          "type": "address"
        }
      ],
      "stateMutability": "view",
      "type": "function"
    },
    {
      "inputs": [
        {
          "internalType": "address",
          "name": "from",
          "type": "address"
        },
        {
          "internalType": "address",
          "name": "to",
          "type": "address"
        },
        {
          "internalType": "uint256",
          "name": "tokenId",
          "type": "uint256"
        }
      ],
      "name": "safeTransferFrom",
      "outputs": [],
      "stateMutability": "nonpayable",
      "type": "function"
    },
    {
      "inputs": [
        {
          "internalType": "address",
          "name": "from",
          "type": "address"
        },
        {
          "internalType": "address",
          "name": "to",
          "type": "address"
        },
        {
          "internalType": "uint256",
          "name": "tokenId",
          "type": "uint256"
        },
        {
          "internalType": "bytes",
          "name": "_data",
          "type": "bytes"
        }
      ],
      "name": "safeTransferFrom",
      "outputs": [],
      "stateMutability": "nonpayable",
      "type": "function"
    },
    {
      "inputs": [
        {
          "internalType": "address",
          "name": "operator",
          "type": "address"
        },
        {
          "internalType": "bool",
          "name": "approved",
          "type": "bool"
        }
      ],
      "name": "setApprovalForAll",
      "outputs": [],
      "stateMutability": "nonpayable",
      "type": "function"
    },
    {
      "inputs": [
        {
          "internalType": "bytes4",
          "name": "interfaceId",
          "type": "bytes4"
        }
      ],
      "name": "supportsInterface",
      "outputs": [
        {
          "internalType": "bool",
          "name": "",
          "type": "bool"
        }
      ],
      "stateMutability": "view",
      "type": "function"
    },
    {
      "inputs": [],
      "name": "symbol",
      "outputs": [
        {
          "internalType": "string",
          "name": "",
          "type": "string"
        }
      ],
      "stateMutability": "view",
      "type": "function"
    },
    {
      "inputs": [
        {
          "internalType": "uint256",
          "name": "tokenId",
          "type": "uint256"
        }
      ],
      "name": "tokenURI",
      "outputs": [
        {
          "internalType": "string",
          "name": "",
          "type": "string"
        }
      ],
      "stateMutability": "view",
      "type": "function"
    },
    {
      "inputs": [
        {
          "internalType": "address",
          "name": "from",
          "type": "address"
        },
        {
          "internalType": "address",
          "name": "to",
          "type": "address"
        },
        {
          "internalType": "uint256",
          "name": "tokenId",
          "type": "uint256"
        }
      ],
      "name": "transferFrom",
      "outputs": [],
      "stateMutability": "nonpayable",
      "type": "function"
    }
  ],
  "bytecode": "0x60806040526032600855604051806101e001604052806040518060400160405280600981526020017f506f6c69746963616c000000000000000000000000000000000000000000000081525081526020016040518060400160405280600581526020017f576f6f7a7900000000000000000000000000000000000000000000000000000081525081526020016040518060400160405280600a81526020017f4e7574726974696f75730000000000000000000000000000000000000000000081525081526020016040518060400160405280600681526020017f416369646963000000000000000000000000000000000000000000000000000081525081526020016040518060400160405280600881526020017f496d6d696e656e7400000000000000000000000000000000000000000000000081525081526020016040518060400160405280600781526020017f5765616c7468790000000000000000000000000000000000000000000000000081525081526020016040518060400160405280600881526020017f446f75627466756c00000000000000000000000000000000000000000000000081525081526020016040518060400160405280600681526020017f4661756c7479000000000000000000000000000000000000000000000000000081525081526020016040518060400160405280600981526020017f5669766163696f7573000000000000000000000000000000000000000000000081525081526020016040518060400160405280600581526020017f466c616b7900000000000000000000000000000000000000000000000000000081525081526020016040518060400160405280600581526020017f476f646c7900000000000000000000000000000000000000000000000000000081525081526020016040518060400160405280600681526020017f456e74697265000000000000000000000000000000000000000000000000000081525081526020016040518060400160405280600881526020017f526f6d616e74696300000000000000000000000000000000000000000000000081525081526020016040518060400160405280600881526020017f4d696e646c65737300000000000000000000000000000000000000000000000081525081526020016040518060400160405280600a81526020017f456c656374726f6e696300000000000000000000000000000000000000000000815250815250600990600f6200039a92919062000db1565b50604051806101e001604052806040518060400160405280600981526020017f5265616c6973746963000000000000000000000000000000000000000000000081525081526020016040518060400160405280600b81526020017f43616c63756c6174696e6700000000000000000000000000000000000000000081525081526020016040518060400160405280600681526020017f4d656c746564000000000000000000000000000000000000000000000000000081525081526020016040518060400160405280600481526020017f4d65616e0000000000000000000000000000000000000000000000000000000081525081526020016040518060400160405280600a81526020017f496d70726573736976650000000000000000000000000000000000000000000081525081526020016040518060400160405280600a81526020017f4576616e657363656e740000000000000000000000000000000000000000000081525081526020016040518060400160405280600981526020017f426f756e646c657373000000000000000000000000000000000000000000000081525081526020016040518060400160405280600681526020017f546177647279000000000000000000000000000000000000000000000000000081525081526020016040518060400160405280600881526020017f436f6e667573656400000000000000000000000000000000000000000000000081525081526020016040518060400160405280600581526020017f416c69766500000000000000000000000000000000000000000000000000000081525081526020016040518060400160405280600781526020017f467572746976650000000000000000000000000000000000000000000000000081525081526020016040518060400160405280600a81526020017f4f6d6e69736369656e740000000000000000000000000000000000000000000081525081526020016040518060400160405280600581526020017f507566667900000000000000000000000000000000000000000000000000000081525081526020016040518060400160405280600781526020017f4d7564646c65640000000000000000000000000000000000000000000000000081525081526020016040518060400160405280600b81526020017f456475636174696f6e616c000000000000000000000000000000000000000000815250815250600a90600f6200072c92919062000db1565b50604051806101e001604052806040518060400160405280600681526020017f456e67696e65000000000000000000000000000000000000000000000000000081525081526020016040518060400160405280600781526020017f53657373696f6e0000000000000000000000000000000000000000000000000081525081526020016040518060400160405280600581526020017f4d7573696300000000000000000000000000000000000000000000000000000081525081526020016040518060400160405280600b81526020017f456e67696e656572696e6700000000000000000000000000000000000000000081525081526020016040518060400160405280600981526020017f486973746f7269616e000000000000000000000000000000000000000000000081525081526020016040518060400160405280600681526020017f576f726b6572000000000000000000000000000000000000000000000000000081525081526020016040518060400160405280600681526020017f5468726f6174000000000000000000000000000000000000000000000000000081525081526020016040518060400160405280600881526020017f536563757269747900000000000000000000000000000000000000000000000081525081526020016040518060400160405280600a81526020017f506f7373657373696f6e0000000000000000000000000000000000000000000081525081526020016040518060400160405280600481526020017f476f616c0000000000000000000000000000000000000000000000000000000081525081526020016040518060400160405280600581526020017f546f70696300000000000000000000000000000000000000000000000000000081525081526020016040518060400160405280600581526020017f486f6e657900000000000000000000000000000000000000000000000000000081525081526020016040518060400160405280600481526020017f4769726c0000000000000000000000000000000000000000000000000000000081525081526020016040518060400160405280600381526020017f576179000000000000000000000000000000000000000000000000000000000081525081526020016040518060400160405280600481526020017f4269726400000000000000000000000000000000000000000000000000000000815250815250600b90600f62000abe92919062000db1565b506040518060a001604052806040518060400160405280600581526020017f626c61636b00000000000000000000000000000000000000000000000000000081525081526020016040518060400160405280600481526020017f626c75650000000000000000000000000000000000000000000000000000000081525081526020016040518060400160405280600581526020017f677265656e00000000000000000000000000000000000000000000000000000081525081526020016040518060400160405280600381526020017f726564000000000000000000000000000000000000000000000000000000000081525081526020016040518060400160405280600681526020017f707572706c650000000000000000000000000000000000000000000000000000815250815250600c90600562000c0192919062000e18565b5034801562000c0f57600080fd5b506040518060400160405280600981526020017f5371756172654e465400000000000000000000000000000000000000000000008152506040518060400160405280600681526020017f5351554152450000000000000000000000000000000000000000000000000000815250816000908051906020019062000c9492919062000e7f565b50806001908051906020019062000cad92919062000e7f565b50505062000cdf60405180606001604052806029815260200162004df16029913962000ce560201b62000d3d1760201c565b620010ca565b62000d858160405160240162000cfc919062000fde565b6040516020818303038152906040527f41304fac000000000000000000000000000000000000000000000000000000007bffffffffffffffffffffffffffffffffffffffffffffffffffffffff19166020820180517bffffffffffffffffffffffffffffffffffffffffffffffffffffffff838183161783525050505062000d8860201b60201c565b50565b60008151905060006a636f6e736f6c652e6c6f679050602083016000808483855afa5050505050565b82805482825590600052602060002090810192821562000e05579160200282015b8281111562000e0457825182908051906020019062000df392919062000e7f565b509160200191906001019062000dd2565b5b50905062000e14919062000f10565b5090565b82805482825590600052602060002090810192821562000e6c579160200282015b8281111562000e6b57825182908051906020019062000e5a92919062000e7f565b509160200191906001019062000e39565b5b50905062000e7b919062000f10565b5090565b82805462000e8d9062001054565b90600052602060002090601f01602090048101928262000eb1576000855562000efd565b82601f1062000ecc57805160ff191683800117855562000efd565b8280016001018555821562000efd579182015b8281111562000efc57825182559160200191906001019062000edf565b5b50905062000f0c919062000f38565b5090565b5b8082111562000f34576000818162000f2a919062000f57565b5060010162000f11565b5090565b5b8082111562000f5357600081600090555060010162000f39565b5090565b50805462000f659062001054565b6000825580601f1062000f79575062000f9a565b601f01602090049060005260206000209081019062000f99919062000f38565b5b50565b600062000faa8262001002565b62000fb681856200100d565b935062000fc88185602086016200101e565b62000fd381620010b9565b840191505092915050565b6000602082019050818103600083015262000ffa818462000f9d565b905092915050565b600081519050919050565b600082825260208201905092915050565b60005b838110156200103e57808201518184015260208101905062001021565b838111156200104e576000848401525b50505050565b600060028204905060018216806200106d57607f821691505b602082108114156200108457620010836200108a565b5b50919050565b7f4e487b7100000000000000000000000000000000000000000000000000000000600052602260045260246000fd5b6000601f19601f8301169050919050565b613d1780620010da6000396000f3fe608060405234801561001057600080fd5b50600436106101005760003560e01c806370a0823111610097578063b88d4fde11610066578063b88d4fde146102ad578063c87b56dd146102c9578063de9d132f146102f9578063e985e9c51461030357610100565b806370a082311461022557806395d89b4114610255578063996517cf14610273578063a22cb4651461029157610100565b8063095ea7b3116100d3578063095ea7b3146101a157806323b872dd146101bd57806342842e0e146101d95780636352211e146101f557610100565b806301ffc9a714610105578063060475901461013557806306fdde0314610153578063081812fc14610171575b600080fd5b61011f600480360381019061011a919061272b565b610333565b60405161012c9190612d94565b60405180910390f35b61013d610415565b60405161014a9190613066565b60405180910390f35b61015b610426565b6040516101689190612daf565b60405180910390f35b61018b6004803603810190610186919061277d565b6104b8565b6040516101989190612d04565b60405180910390f35b6101bb60048036038101906101b691906126ef565b61053d565b005b6101d760048036038101906101d291906125e9565b610655565b005b6101f360048036038101906101ee91906125e9565b6106b5565b005b61020f600480360381019061020a919061277d565b6106d5565b60405161021c9190612d04565b60405180910390f35b61023f600480360381019061023a9190612584565b610787565b60405161024c9190613066565b60405180910390f35b61025d61083f565b60405161026a9190612daf565b60405180910390f35b61027b6108d1565b6040516102889190613066565b60405180910390f35b6102ab60048036038101906102a691906126b3565b6108d7565b005b6102c760048036038101906102c29190612638565b6108ed565b005b6102e360048036038101906102de919061277d565b61094f565b6040516102f09190612daf565b60405180910390f35b610301610aa1565b005b61031d600480360381019061031891906125ad565b610ca9565b60405161032a9190612d94565b60405180910390f35b60007f80ac58cd000000000000000000000000000000000000000000000000000000007bffffffffffffffffffffffffffffffffffffffffffffffffffffffff1916827bffffffffffffffffffffffffffffffffffffffffffffffffffffffff191614806103fe57507f5b5e139f000000000000000000000000000000000000000000000000000000007bffffffffffffffffffffffffffffffffffffffffffffffffffffffff1916827bffffffffffffffffffffffffffffffffffffffffffffffffffffffff1916145b8061040e575061040d82610dd6565b5b9050919050565b60006104216007610e40565b905090565b606060008054610435906132e5565b80601f0160208091040260200160405190810160405280929190818152602001828054610461906132e5565b80156104ae5780601f10610483576101008083540402835291602001916104ae565b820191906000526020600020905b81548152906001019060200180831161049157829003601f168201915b5050505050905090565b60006104c382610e4e565b610502576040517f08c379a00000000000000000000000000000000000000000000000000000000081526004016104f990612fc6565b60405180910390fd5b6004600083815260200190815260200160002060009054906101000a900473ffffffffffffffffffffffffffffffffffffffff169050919050565b6000610548826106d5565b90508073ffffffffffffffffffffffffffffffffffffffff168373ffffffffffffffffffffffffffffffffffffffff1614156105b9576040517f08c379a00000000000000000000000000000000000000000000000000000000081526004016105b090613026565b60405180910390fd5b8073ffffffffffffffffffffffffffffffffffffffff166105d8610eba565b73ffffffffffffffffffffffffffffffffffffffff161480610607575061060681610601610eba565b610ca9565b5b610646576040517f08c379a000000000000000000000000000000000000000000000000000000000815260040161063d90612f06565b60405180910390fd5b6106508383610ec2565b505050565b610666610660610eba565b82610f7b565b6106a5576040517f08c379a000000000000000000000000000000000000000000000000000000000815260040161069c90613046565b60405180910390fd5b6106b0838383611059565b505050565b6106d0838383604051806020016040528060008152506108ed565b505050565b6000806002600084815260200190815260200160002060009054906101000a900473ffffffffffffffffffffffffffffffffffffffff169050600073ffffffffffffffffffffffffffffffffffffffff168173ffffffffffffffffffffffffffffffffffffffff16141561077e576040517f08c379a000000000000000000000000000000000000000000000000000000000815260040161077590612f46565b60405180910390fd5b80915050919050565b60008073ffffffffffffffffffffffffffffffffffffffff168273ffffffffffffffffffffffffffffffffffffffff1614156107f8576040517f08c379a00000000000000000000000000000000000000000000000000000000081526004016107ef90612f26565b60405180910390fd5b600360008373ffffffffffffffffffffffffffffffffffffffff1673ffffffffffffffffffffffffffffffffffffffff168152602001908152602001600020549050919050565b60606001805461084e906132e5565b80601f016020809104026020016040519081016040528092919081815260200182805461087a906132e5565b80156108c75780601f1061089c576101008083540402835291602001916108c7565b820191906000526020600020905b8154815290600101906020018083116108aa57829003601f168201915b5050505050905090565b60085481565b6108e96108e2610eba565b83836112c0565b5050565b6108fe6108f8610eba565b83610f7b565b61093d576040517f08c379a000000000000000000000000000000000000000000000000000000000815260040161093490613046565b60405180910390fd5b6109498484848461142d565b50505050565b606061095a82610e4e565b610999576040517f08c379a000000000000000000000000000000000000000000000000000000000815260040161099090612fa6565b60405180910390fd5b60006006600084815260200190815260200160002080546109b9906132e5565b80601f01602080910402602001604051908101604052809291908181526020018280546109e5906132e5565b8015610a325780601f10610a0757610100808354040283529160200191610a32565b820191906000526020600020905b815481529060010190602001808311610a1557829003601f168201915b505050505090506000610a43611489565b9050600081511415610a59578192505050610a9c565b600082511115610a8e578082604051602001610a76929190612bf8565b60405160208183030381529060405292505050610a9c565b610a97846114a0565b925050505b919050565b6000610aad6007610e40565b9050600854811115610af4576040517f08c379a0000000000000000000000000000000000000000000000000000000008152600401610aeb90612fe6565b60405180910390fd5b610afe3382611547565b610b21604051806060016040528060258152602001613c7d602591398233611565565b6000610b2c82611604565b610b358361171e565b610b3e84611838565b604051602001610b5093929190612c1c565b60405160208183030381529060405290506000610b6c83611952565b90506000610b7a8284611a6c565b9050600083610b8883611a98565b604051602001610b99929190612c4d565b60405160208183030381529060405290506000610bb582611a98565b604051602001610bc59190612ce2565b6040516020818303038152906040529050610c156040518060400160405280600781526020017f5356473a2025730000000000000000000000000000000000000000000000000081525084611c56565b610c546040518060400160405280600c81526020017f546f6b656e5552493a202573000000000000000000000000000000000000000081525082611c56565b610c5e8682611cf2565b610c686007611d66565b7febb98688741ffa4c7589bf325de30cf7becb63de567842e1ccdb6cb949fdc82c3387604051610c99929190612d6b565b60405180910390a1505050505050565b6000600560008473ffffffffffffffffffffffffffffffffffffffff1673ffffffffffffffffffffffffffffffffffffffff16815260200190815260200160002060008373ffffffffffffffffffffffffffffffffffffffff1673ffffffffffffffffffffffffffffffffffffffff16815260200190815260200160002060009054906101000a900460ff16905092915050565b610dd381604051602401610d519190612daf565b6040516020818303038152906040527f41304fac000000000000000000000000000000000000000000000000000000007bffffffffffffffffffffffffffffffffffffffffffffffffffffffff19166020820180517bffffffffffffffffffffffffffffffffffffffffffffffffffffffff8381831617835250505050611d7c565b50565b60007f01ffc9a7000000000000000000000000000000000000000000000000000000007bffffffffffffffffffffffffffffffffffffffffffffffffffffffff1916827bffffffffffffffffffffffffffffffffffffffffffffffffffffffff1916149050919050565b600081600001549050919050565b60008073ffffffffffffffffffffffffffffffffffffffff166002600084815260200190815260200160002060009054906101000a900473ffffffffffffffffffffffffffffffffffffffff1673ffffffffffffffffffffffffffffffffffffffff1614159050919050565b600033905090565b816004600083815260200190815260200160002060006101000a81548173ffffffffffffffffffffffffffffffffffffffff021916908373ffffffffffffffffffffffffffffffffffffffff160217905550808273ffffffffffffffffffffffffffffffffffffffff16610f35836106d5565b73ffffffffffffffffffffffffffffffffffffffff167f8c5be1e5ebec7d5bd14f71427d1e84f3dd0314c0f7b2291e5b200ac8c7c3b92560405160405180910390a45050565b6000610f8682610e4e565b610fc5576040517f08c379a0000000000000000000000000000000000000000000000000000000008152600401610fbc90612ee6565b60405180910390fd5b6000610fd0836106d5565b90508073ffffffffffffffffffffffffffffffffffffffff168473ffffffffffffffffffffffffffffffffffffffff16148061103f57508373ffffffffffffffffffffffffffffffffffffffff16611027846104b8565b73ffffffffffffffffffffffffffffffffffffffff16145b80611050575061104f8185610ca9565b5b91505092915050565b8273ffffffffffffffffffffffffffffffffffffffff16611079826106d5565b73ffffffffffffffffffffffffffffffffffffffff16146110cf576040517f08c379a00000000000000000000000000000000000000000000000000000000081526004016110c690612e66565b60405180910390fd5b600073ffffffffffffffffffffffffffffffffffffffff168273ffffffffffffffffffffffffffffffffffffffff16141561113f576040517f08c379a000000000000000000000000000000000000000000000000000000000815260040161113690612ea6565b60405180910390fd5b61114a838383611da5565b611155600082610ec2565b6001600360008573ffffffffffffffffffffffffffffffffffffffff1673ffffffffffffffffffffffffffffffffffffffff16815260200190815260200160002060008282546111a591906131fb565b925050819055506001600360008473ffffffffffffffffffffffffffffffffffffffff1673ffffffffffffffffffffffffffffffffffffffff16815260200190815260200160002060008282546111fc919061311a565b92505081905550816002600083815260200190815260200160002060006101000a81548173ffffffffffffffffffffffffffffffffffffffff021916908373ffffffffffffffffffffffffffffffffffffffff160217905550808273ffffffffffffffffffffffffffffffffffffffff168473ffffffffffffffffffffffffffffffffffffffff167fddf252ad1be2c89b69c2b068fc378daa952ba7f163c4a11628f55a4df523b3ef60405160405180910390a46112bb838383611daa565b505050565b8173ffffffffffffffffffffffffffffffffffffffff168373ffffffffffffffffffffffffffffffffffffffff16141561132f576040517f08c379a000000000000000000000000000000000000000000000000000000000815260040161132690612ec6565b60405180910390fd5b80600560008573ffffffffffffffffffffffffffffffffffffffff1673ffffffffffffffffffffffffffffffffffffffff16815260200190815260200160002060008473ffffffffffffffffffffffffffffffffffffffff1673ffffffffffffffffffffffffffffffffffffffff16815260200190815260200160002060006101000a81548160ff0219169083151502179055508173ffffffffffffffffffffffffffffffffffffffff168373ffffffffffffffffffffffffffffffffffffffff167f17307eab39ab6107e8899845ad3d59bd9653f200f220920489ca2b5937696c31836040516114209190612d94565b60405180910390a3505050565b611438848484611059565b61144484848484611daf565b611483576040517f08c379a000000000000000000000000000000000000000000000000000000000815260040161147a90612e46565b60405180910390fd5b50505050565b606060405180602001604052806000815250905090565b60606114ab82610e4e565b6114ea576040517f08c379a00000000000000000000000000000000000000000000000000000000081526004016114e190613006565b60405180910390fd5b60006114f4611489565b90506000815111611514576040518060200160405280600081525061153f565b8061151e84611f46565b60405160200161152f929190612bf8565b6040516020818303038152906040525b915050919050565b6115618282604051806020016040528060008152506120f3565b5050565b6115ff83838360405160240161157d93929190612e08565b6040516020818303038152906040527fe3849f79000000000000000000000000000000000000000000000000000000007bffffffffffffffffffffffffffffffffffffffffffffffffffffffff19166020820180517bffffffffffffffffffffffffffffffffffffffffffffffffffffffff8381831617835250505050611d7c565b505050565b6060611717826009805480602002602001604051908101604052809291908181526020016000905b828210156116d857838290600052602060002001805461164b906132e5565b80601f0160208091040260200160405190810160405280929190818152602001828054611677906132e5565b80156116c45780601f10611699576101008083540402835291602001916116c4565b820191906000526020600020905b8154815290600101906020018083116116a757829003601f168201915b50505050508152602001906001019061162c565b505050506040518060400160405280600a81526020017f46495253545f574f52440000000000000000000000000000000000000000000081525061214e565b9050919050565b606061183182600a805480602002602001604051908101604052809291908181526020016000905b828210156117f2578382906000526020600020018054611765906132e5565b80601f0160208091040260200160405190810160405280929190818152602001828054611791906132e5565b80156117de5780601f106117b3576101008083540402835291602001916117de565b820191906000526020600020905b8154815290600101906020018083116117c157829003601f168201915b505050505081526020019060010190611746565b505050506040518060400160405280600b81526020017f5345434f4e445f574f524400000000000000000000000000000000000000000081525061214e565b9050919050565b606061194b82600b805480602002602001604051908101604052809291908181526020016000905b8282101561190c57838290600052602060002001805461187f906132e5565b80601f01602080910402602001604051908101604052809291908181526020018280546118ab906132e5565b80156118f85780601f106118cd576101008083540402835291602001916118f8565b820191906000526020600020905b8154815290600101906020018083116118db57829003601f168201915b505050505081526020019060010190611860565b505050506040518060400160405280600a81526020017f54484952445f574f52440000000000000000000000000000000000000000000081525061214e565b9050919050565b6060611a6582600c805480602002602001604051908101604052809291908181526020016000905b82821015611a26578382906000526020600020018054611999906132e5565b80601f01602080910402602001604051908101604052809291908181526020018280546119c5906132e5565b8015611a125780601f106119e757610100808354040283529160200191611a12565b820191906000526020600020905b8154815290600101906020018083116119f557829003601f168201915b50505050508152602001906001019061197a565b505050506040518060400160405280600581526020017f434f4c4f5200000000000000000000000000000000000000000000000000000081525061214e565b9050919050565b60608282604051602001611a81929190612c9d565b604051602081830303815290604052905092915050565b60606000825190506000811415611ac15760405180602001604052806000815250915050611c51565b60006003600283611ad2919061311a565b611adc9190613170565b6004611ae891906131a1565b90506000602082611af9919061311a565b67ffffffffffffffff811115611b38577f4e487b7100000000000000000000000000000000000000000000000000000000600052604160045260246000fd5b6040519080825280601f01601f191660200182016040528015611b6a5781602001600182028036833780820191505090505b5090506000604051806060016040528060408152602001613ca2604091399050600181016020830160005b86811015611c0e5760038101905062ffffff818a015116603f8160121c168401518060081b905060ff603f83600c1c1686015116810190508060081b905060ff603f8360061c1686015116810190508060081b905060ff603f831686015116810190508060e01b90508084526004840193505050611b95565b506003860660018114611c285760028114611c3857611c43565b613d3d60f01b6002830352611c43565b603d60f81b60018303525b508484525050819450505050505b919050565b611cee8282604051602401611c6c929190612dd1565b6040516020818303038152906040527f4b5c4277000000000000000000000000000000000000000000000000000000007bffffffffffffffffffffffffffffffffffffffffffffffffffffffff19166020820180517bffffffffffffffffffffffffffffffffffffffffffffffffffffffff8381831617835250505050611d7c565b5050565b611cfb82610e4e565b611d3a576040517f08c379a0000000000000000000000000000000000000000000000000000000008152600401611d3190612f66565b60405180910390fd5b80600660008481526020019081526020016000209080519060200190611d61929190612410565b505050565b6001816000016000828254019250508190555050565b60008151905060006a636f6e736f6c652e6c6f679050602083016000808483855afa5050505050565b505050565b505050565b6000611dd08473ffffffffffffffffffffffffffffffffffffffff166121e0565b15611f39578373ffffffffffffffffffffffffffffffffffffffff1663150b7a02611df9610eba565b8786866040518563ffffffff1660e01b8152600401611e1b9493929190612d1f565b602060405180830381600087803b158015611e3557600080fd5b505af1925050508015611e6657506040513d601f19601f82011682018060405250810190611e639190612754565b60015b611ee9573d8060008114611e96576040519150601f19603f3d011682016040523d82523d6000602084013e611e9b565b606091505b50600081511415611ee1576040517f08c379a0000000000000000000000000000000000000000000000000000000008152600401611ed890612e46565b60405180910390fd5b805181602001fd5b63150b7a0260e01b7bffffffffffffffffffffffffffffffffffffffffffffffffffffffff1916817bffffffffffffffffffffffffffffffffffffffffffffffffffffffff191614915050611f3e565b600190505b949350505050565b60606000821415611f8e576040518060400160405280600181526020017f300000000000000000000000000000000000000000000000000000000000000081525090506120ee565b600082905060005b60008214611fc0578080611fa990613348565b915050600a82611fb99190613170565b9150611f96565b60008167ffffffffffffffff811115612002577f4e487b7100000000000000000000000000000000000000000000000000000000600052604160045260246000fd5b6040519080825280601f01601f1916602001820160405280156120345781602001600182028036833780820191505090505b5090505b600085146120e75760018261204d91906131fb565b9150600a8561205c9190613391565b6030612068919061311a565b60f81b8183815181106120a4577f4e487b7100000000000000000000000000000000000000000000000000000000600052603260045260246000fd5b60200101907effffffffffffffffffffffffffffffffffffffffffffffffffffffffffffff1916908160001a905350600a856120e09190613170565b9450612038565b8093505050505b919050565b6120fd8383612203565b61210a6000848484611daf565b612149576040517f08c379a000000000000000000000000000000000000000000000000000000000815260040161214090612e46565b60405180910390fd5b505050565b606060006121848361215f87611f46565b604051602001612170929190612bf8565b6040516020818303038152906040526123dd565b90508351816121939190613391565b90508381815181106121ce577f4e487b7100000000000000000000000000000000000000000000000000000000600052603260045260246000fd5b60200260200101519150509392505050565b6000808273ffffffffffffffffffffffffffffffffffffffff163b119050919050565b600073ffffffffffffffffffffffffffffffffffffffff168273ffffffffffffffffffffffffffffffffffffffff161415612273576040517f08c379a000000000000000000000000000000000000000000000000000000000815260040161226a90612f86565b60405180910390fd5b61227c81610e4e565b156122bc576040517f08c379a00000000000000000000000000000000000000000000000000000000081526004016122b390612e86565b60405180910390fd5b6122c860008383611da5565b6001600360008473ffffffffffffffffffffffffffffffffffffffff1673ffffffffffffffffffffffffffffffffffffffff1681526020019081526020016000206000828254612318919061311a565b92505081905550816002600083815260200190815260200160002060006101000a81548173ffffffffffffffffffffffffffffffffffffffff021916908373ffffffffffffffffffffffffffffffffffffffff160217905550808273ffffffffffffffffffffffffffffffffffffffff16600073ffffffffffffffffffffffffffffffffffffffff167fddf252ad1be2c89b69c2b068fc378daa952ba7f163c4a11628f55a4df523b3ef60405160405180910390a46123d960008383611daa565b5050565b6000816040516020016123f09190612be1565b6040516020818303038152906040528051906020012060001c9050919050565b82805461241c906132e5565b90600052602060002090601f01602090048101928261243e5760008555612485565b82601f1061245757805160ff1916838001178555612485565b82800160010185558215612485579182015b82811115612484578251825591602001919060010190612469565b5b5090506124929190612496565b5090565b5b808211156124af576000816000905550600101612497565b5090565b60006124c66124c1846130a6565b613081565b9050828152602081018484840111156124de57600080fd5b6124e98482856132a3565b509392505050565b60008135905061250081613c20565b92915050565b60008135905061251581613c37565b92915050565b60008135905061252a81613c4e565b92915050565b60008151905061253f81613c4e565b92915050565b600082601f83011261255657600080fd5b81356125668482602086016124b3565b91505092915050565b60008135905061257e81613c65565b92915050565b60006020828403121561259657600080fd5b60006125a4848285016124f1565b91505092915050565b600080604083850312156125c057600080fd5b60006125ce858286016124f1565b92505060206125df858286016124f1565b9150509250929050565b6000806000606084860312156125fe57600080fd5b600061260c868287016124f1565b935050602061261d868287016124f1565b925050604061262e8682870161256f565b9150509250925092565b6000806000806080858703121561264e57600080fd5b600061265c878288016124f1565b945050602061266d878288016124f1565b935050604061267e8782880161256f565b925050606085013567ffffffffffffffff81111561269b57600080fd5b6126a787828801612545565b91505092959194509250565b600080604083850312156126c657600080fd5b60006126d4858286016124f1565b92505060206126e585828601612506565b9150509250929050565b6000806040838503121561270257600080fd5b6000612710858286016124f1565b92505060206127218582860161256f565b9150509250929050565b60006020828403121561273d57600080fd5b600061274b8482850161251b565b91505092915050565b60006020828403121561276657600080fd5b600061277484828501612530565b91505092915050565b60006020828403121561278f57600080fd5b600061279d8482850161256f565b91505092915050565b6127af8161322f565b82525050565b6127be81613241565b82525050565b60006127cf826130d7565b6127d981856130ed565b93506127e98185602086016132b2565b6127f28161347e565b840191505092915050565b6000612808826130e2565b61281281856130fe565b93506128228185602086016132b2565b61282b8161347e565b840191505092915050565b6000612841826130e2565b61284b818561310f565b935061285b8185602086016132b2565b80840191505092915050565b60006128746032836130fe565b915061287f8261348f565b604082019050919050565b60006128976025836130fe565b91506128a2826134de565b604082019050919050565b60006128ba600b8361310f565b91506128c58261352d565b600b82019050919050565b60006128dd601c836130fe565b91506128e882613556565b602082019050919050565b60006129006024836130fe565b915061290b8261357f565b604082019050919050565b60006129236019836130fe565b915061292e826135ce565b602082019050919050565b600061294660038361310f565b9150612951826135f7565b600382019050919050565b600061296960488361310f565b915061297482613620565b604882019050919050565b600061298c602c836130fe565b915061299782613695565b604082019050919050565b60006129af600d8361310f565b91506129ba826136e4565b600d82019050919050565b60006129d26038836130fe565b91506129dd8261370d565b604082019050919050565b60006129f560d38361310f565b9150612a008261375c565b60d382019050919050565b6000612a18602a836130fe565b9150612a2382613869565b604082019050919050565b6000612a3b6029836130fe565b9150612a46826138b8565b604082019050919050565b6000612a5e602e836130fe565b9150612a6982613907565b604082019050919050565b6000612a8160248361310f565b9150612a8c82613956565b602482019050919050565b6000612aa46020836130fe565b9150612aaf826139a5565b602082019050919050565b6000612ac76031836130fe565b9150612ad2826139ce565b604082019050919050565b6000612aea602c836130fe565b9150612af582613a1d565b604082019050919050565b6000612b0d6017836130fe565b9150612b1882613a6c565b602082019050919050565b6000612b30602f836130fe565b9150612b3b82613a95565b604082019050919050565b6000612b5360578361310f565b9150612b5e82613ae4565b605782019050919050565b6000612b766021836130fe565b9150612b8182613b59565b604082019050919050565b6000612b99601d8361310f565b9150612ba482613ba8565b601d82019050919050565b6000612bbc6031836130fe565b9150612bc782613bd1565b604082019050919050565b612bdb81613299565b82525050565b6000612bed8284612836565b915081905092915050565b6000612c048285612836565b9150612c108284612836565b91508190509392505050565b6000612c288286612836565b9150612c348285612836565b9150612c408284612836565b9150819050949350505050565b6000612c58826128ad565b9150612c648285612836565b9150612c6f8261295c565b9150612c7a82612a74565b9150612c868284612836565b9150612c9182612939565b91508190509392505050565b6000612ca8826129e8565b9150612cb48285612836565b9150612cbf82612b46565b9150612ccb8284612836565b9150612cd6826129a2565b91508190509392505050565b6000612ced82612b8c565b9150612cf98284612836565b915081905092915050565b6000602082019050612d1960008301846127a6565b92915050565b6000608082019050612d3460008301876127a6565b612d4160208301866127a6565b612d4e6040830185612bd2565b8181036060830152612d6081846127c4565b905095945050505050565b6000604082019050612d8060008301856127a6565b612d8d6020830184612bd2565b9392505050565b6000602082019050612da960008301846127b5565b92915050565b60006020820190508181036000830152612dc981846127fd565b905092915050565b60006040820190508181036000830152612deb81856127fd565b90508181036020830152612dff81846127fd565b90509392505050565b60006060820190508181036000830152612e2281866127fd565b9050612e316020830185612bd2565b612e3e60408301846127a6565b949350505050565b60006020820190508181036000830152612e5f81612867565b9050919050565b60006020820190508181036000830152612e7f8161288a565b9050919050565b60006020820190508181036000830152612e9f816128d0565b9050919050565b60006020820190508181036000830152612ebf816128f3565b9050919050565b60006020820190508181036000830152612edf81612916565b9050919050565b60006020820190508181036000830152612eff8161297f565b9050919050565b60006020820190508181036000830152612f1f816129c5565b9050919050565b60006020820190508181036000830152612f3f81612a0b565b9050919050565b60006020820190508181036000830152612f5f81612a2e565b9050919050565b60006020820190508181036000830152612f7f81612a51565b9050919050565b60006020820190508181036000830152612f9f81612a97565b9050919050565b60006020820190508181036000830152612fbf81612aba565b9050919050565b60006020820190508181036000830152612fdf81612add565b9050919050565b60006020820190508181036000830152612fff81612b00565b9050919050565b6000602082019050818103600083015261301f81612b23565b9050919050565b6000602082019050818103600083015261303f81612b69565b9050919050565b6000602082019050818103600083015261305f81612baf565b9050919050565b600060208201905061307b6000830184612bd2565b92915050565b600061308b61309c565b90506130978282613317565b919050565b6000604051905090565b600067ffffffffffffffff8211156130c1576130c061344f565b5b6130ca8261347e565b9050602081019050919050565b600081519050919050565b600081519050919050565b600082825260208201905092915050565b600082825260208201905092915050565b600081905092915050565b600061312582613299565b915061313083613299565b9250827fffffffffffffffffffffffffffffffffffffffffffffffffffffffffffffffff03821115613165576131646133c2565b5b828201905092915050565b600061317b82613299565b915061318683613299565b925082613196576131956133f1565b5b828204905092915050565b60006131ac82613299565b91506131b783613299565b9250817fffffffffffffffffffffffffffffffffffffffffffffffffffffffffffffffff04831182151516156131f0576131ef6133c2565b5b828202905092915050565b600061320682613299565b915061321183613299565b925082821015613224576132236133c2565b5b828203905092915050565b600061323a82613279565b9050919050565b60008115159050919050565b60007fffffffff0000000000000000000000000000000000000000000000000000000082169050919050565b600073ffffffffffffffffffffffffffffffffffffffff82169050919050565b6000819050919050565b82818337600083830152505050565b60005b838110156132d05780820151818401526020810190506132b5565b838111156132df576000848401525b50505050565b600060028204905060018216806132fd57607f821691505b6020821081141561331157613310613420565b5b50919050565b6133208261347e565b810181811067ffffffffffffffff8211171561333f5761333e61344f565b5b80604052505050565b600061335382613299565b91507fffffffffffffffffffffffffffffffffffffffffffffffffffffffffffffffff821415613386576133856133c2565b5b600182019050919050565b600061339c82613299565b91506133a783613299565b9250826133b7576133b66133f1565b5b828206905092915050565b7f4e487b7100000000000000000000000000000000000000000000000000000000600052601160045260246000fd5b7f4e487b7100000000000000000000000000000000000000000000000000000000600052601260045260246000fd5b7f4e487b7100000000000000000000000000000000000000000000000000000000600052602260045260246000fd5b7f4e487b7100000000000000000000000000000000000000000000000000000000600052604160045260246000fd5b6000601f19601f8301169050919050565b7f4552433732313a207472616e7366657220746f206e6f6e20455243373231526560008201527f63656976657220696d706c656d656e7465720000000000000000000000000000602082015250565b7f4552433732313a207472616e736665722066726f6d20696e636f72726563742060008201527f6f776e6572000000000000000000000000000000000000000000000000000000602082015250565b7f7b20226e616d65223a2022000000000000000000000000000000000000000000600082015250565b7f4552433732313a20746f6b656e20616c7265616479206d696e74656400000000600082015250565b7f4552433732313a207472616e7366657220746f20746865207a65726f2061646460008201527f7265737300000000000000000000000000000000000000000000000000000000602082015250565b7f4552433732313a20617070726f766520746f2063616c6c657200000000000000600082015250565b7f22207d0000000000000000000000000000000000000000000000000000000000600082015250565b7f222c20226465736372697074696f6e223a2022416e204e46542066726f6d207460008201527f686520686967686c79206163636c61696d65642073717561726520636f6c6c6560208201527f6374696f6e222c20000000000000000000000000000000000000000000000000604082015250565b7f4552433732313a206f70657261746f7220717565727920666f72206e6f6e657860008201527f697374656e7420746f6b656e0000000000000000000000000000000000000000602082015250565b7f3c2f746578743e3c2f7376673e00000000000000000000000000000000000000600082015250565b7f4552433732313a20617070726f76652063616c6c6572206973206e6f74206f7760008201527f6e6572206e6f7220617070726f76656420666f7220616c6c0000000000000000602082015250565b7f3c73766720786d6c6e733d27687474703a2f2f7777772e77332e6f72672f323060008201527f30302f73766727207072657365727665417370656374526174696f3d27784d6960208201527f6e594d696e206d656574272076696577426f783d27302030203335302033353060408201527f273e3c7374796c653e2e62617365207b2066696c6c3a2077686974653b20666f60608201527f6e742d66616d696c793a2073657269663b20666f6e742d73697a653a2032347060808201527f783b207d3c2f7374796c653e3c726563742077696474683d273130302527206860a08201527f65696768743d2731303025272066696c6c3d270000000000000000000000000060c082015250565b7f4552433732313a2062616c616e636520717565727920666f7220746865207a6560008201527f726f206164647265737300000000000000000000000000000000000000000000602082015250565b7f4552433732313a206f776e657220717565727920666f72206e6f6e657869737460008201527f656e7420746f6b656e0000000000000000000000000000000000000000000000602082015250565b7f45524337323155524953746f726167653a2055524920736574206f66206e6f6e60008201527f6578697374656e7420746f6b656e000000000000000000000000000000000000602082015250565b7f22696d616765223a2022646174613a696d6167652f7376672b786d6c3b62617360008201527f6536342c00000000000000000000000000000000000000000000000000000000602082015250565b7f4552433732313a206d696e7420746f20746865207a65726f2061646472657373600082015250565b7f45524337323155524953746f726167653a2055524920717565727920666f722060008201527f6e6f6e6578697374656e7420746f6b656e000000000000000000000000000000602082015250565b7f4552433732313a20617070726f76656420717565727920666f72206e6f6e657860008201527f697374656e7420746f6b656e0000000000000000000000000000000000000000602082015250565b7f4e6f206d6f7265204e46547320617661696c61626c6573000000000000000000600082015250565b7f4552433732314d657461646174613a2055524920717565727920666f72206e6f60008201527f6e6578697374656e7420746f6b656e0000000000000000000000000000000000602082015250565b7f27202f3e3c7465787420783d273530252720793d273530252720636c6173733d60008201527f27626173652720646f6d696e616e742d626173656c696e653d276d6964646c6560208201527f2720746578742d616e63686f723d276d6964646c65273e000000000000000000604082015250565b7f4552433732313a20617070726f76616c20746f2063757272656e74206f776e6560008201527f7200000000000000000000000000000000000000000000000000000000000000602082015250565b7f646174613a6170706c69636174696f6e2f6a736f6e3b6261736536342c000000600082015250565b7f4552433732313a207472616e736665722063616c6c6572206973206e6f74206f60008201527f776e6572206e6f7220617070726f766564000000000000000000000000000000602082015250565b613c298161322f565b8114613c3457600080fd5b50565b613c4081613241565b8114613c4b57600080fd5b50565b613c578161324d565b8114613c6257600080fd5b50565b613c6e81613299565b8114613c7957600080fd5b5056fe416e204e465420772f20494420256420686173206265656e206d696e74656420746f2025734142434445464748494a4b4c4d4e4f505152535455565758595a6162636465666768696a6b6c6d6e6f707172737475767778797a303132333435363738392b2fa26469706673582212206475aa805f8c1adaadaee844fec8281c5eeed9c044aa663340e70aeee2f7ccf864736f6c6343000801003354686973206973206d79204e4654204570696320547269707320636f6e74726163742e20576f616821",
  "linkReferences": {},
  "deployedLinkReferences": {}
}