{
  "_format": "hh-sol-artifact-1",
  "contractName": "MyEpicNFT",
  "sourceName": "contracts/MyEpicNFT.sol",
  "abi": [
    {
      "inputs": [],
      "stateMutability": "nonpayable",
      "type": "constructor"
    },
    {
      "anonymous": false,
      "inputs": [
        {
          "indexed": true,
          "internalType": "address",
          "name": "owner",
          "type": "address"
        },
        {
          "indexed": true,
          "internalType": "address",
          "name": "approved",
          "type": "address"
        },
        {
          "indexed": true,
          "internalType": "uint256",
          "name": "tokenId",
          "type": "uint256"
        }
      ],
      "name": "Approval",
      "type": "event"
    },
    {
      "anonymous": false,
      "inputs": [
        {
          "indexed": true,
          "internalType": "address",
          "name": "owner",
          "type": "address"
        },
        {
          "indexed": true,
          "internalType": "address",
          "name": "operator",
          "type": "address"
        },
        {
          "indexed": false,
          "internalType": "bool",
          "name": "approved",
          "type": "bool"
        }
      ],
      "name": "ApprovalForAll",
      "type": "event"
    },
    {
      "anonymous": false,
      "inputs": [
        {
          "indexed": true,
          "internalType": "address",
          "name": "from",
          "type": "address"
        },
        {
          "indexed": true,
          "internalType": "address",
          "name": "to",
          "type": "address"
        },
        {
          "indexed": true,
          "internalType": "uint256",
          "name": "tokenId",
          "type": "uint256"
        }
      ],
      "name": "Transfer",
      "type": "event"
    },
    {
      "inputs": [
        {
          "internalType": "address",
          "name": "to",
          "type": "address"
        },
        {
          "internalType": "uint256",
          "name": "tokenId",
          "type": "uint256"
        }
      ],
      "name": "approve",
      "outputs": [],
      "stateMutability": "nonpayable",
      "type": "function"
    },
    {
      "inputs": [
        {
          "internalType": "address",
          "name": "owner",
          "type": "address"
        }
      ],
      "name": "balanceOf",
      "outputs": [
        {
          "internalType": "uint256",
          "name": "",
          "type": "uint256"
        }
      ],
      "stateMutability": "view",
      "type": "function"
    },
    {
      "inputs": [
        {
          "internalType": "uint256",
          "name": "tokenId",
          "type": "uint256"
        }
      ],
      "name": "getApproved",
      "outputs": [
        {
          "internalType": "address",
          "name": "",
          "type": "address"
        }
      ],
      "stateMutability": "view",
      "type": "function"
    },
    {
      "inputs": [
        {
          "internalType": "address",
          "name": "owner",
          "type": "address"
        },
        {
          "internalType": "address",
          "name": "operator",
          "type": "address"
        }
      ],
      "name": "isApprovedForAll",
      "outputs": [
        {
          "internalType": "bool",
          "name": "",
          "type": "bool"
        }
      ],
      "stateMutability": "view",
      "type": "function"
    },
    {
      "inputs": [],
      "name": "makeAnEpicNFT",
      "outputs": [],
      "stateMutability": "nonpayable",
      "type": "function"
    },
    {
      "inputs": [],
      "name": "name",
      "outputs": [
        {
          "internalType": "string",
          "name": "",
          "type": "string"
        }
      ],
      "stateMutability": "view",
      "type": "function"
    },
    {
      "inputs": [
        {
          "internalType": "uint256",
          "name": "tokenId",
          "type": "uint256"
        }
      ],
      "name": "ownerOf",
      "outputs": [
        {
          "internalType": "address",
          "name": "",
          "type": "address"
        }
      ],
      "stateMutability": "view",
      "type": "function"
    },
    {
      "inputs": [
        {
          "internalType": "uint256",
          "name": "tokenId",
          "type": "uint256"
        }
      ],
      "name": "pickRandomFirstWord",
      "outputs": [
        {
          "internalType": "string",
          "name": "",
          "type": "string"
        }
      ],
      "stateMutability": "view",
      "type": "function"
    },
    {
      "inputs": [
        {
          "internalType": "uint256",
          "name": "tokenId",
          "type": "uint256"
        }
      ],
      "name": "pickRandomSecondWord",
      "outputs": [
        {
          "internalType": "string",
          "name": "",
          "type": "string"
        }
      ],
      "stateMutability": "view",
      "type": "function"
    },
    {
      "inputs": [
        {
          "internalType": "uint256",
          "name": "tokenId",
          "type": "uint256"
        }
      ],
      "name": "pickRandomThirdWord",
      "outputs": [
        {
          "internalType": "string",
          "name": "",
          "type": "string"
        }
      ],
      "stateMutability": "view",
      "type": "function"
    },
    {
      "inputs": [
        {
          "internalType": "uint256",
          "name": "tokenID",
          "type": "uint256"
        },
        {
          "internalType": "string[]",
          "name": "words",
          "type": "string[]"
        },
        {
          "internalType": "string",
          "name": "seedPhrase",
          "type": "string"
        }
      ],
      "name": "pickRandomWord",
      "outputs": [
        {
          "internalType": "string",
          "name": "",
          "type": "string"
        }
      ],
      "stateMutability": "pure",
      "type": "function"
    },
    {
      "inputs": [
        {
          "internalType": "address",
          "name": "from",
          "type": "address"
        },
        {
          "internalType": "address",
          "name": "to",
          "type": "address"
        },
        {
          "internalType": "uint256",
          "name": "tokenId",
          "type": "uint256"
        }
      ],
      "name": "safeTransferFrom",
      "outputs": [],
      "stateMutability": "nonpayable",
      "type": "function"
    },
    {
      "inputs": [
        {
          "internalType": "address",
          "name": "from",
          "type": "address"
        },
        {
          "internalType": "address",
          "name": "to",
          "type": "address"
        },
        {
          "internalType": "uint256",
          "name": "tokenId",
          "type": "uint256"
        },
        {
          "internalType": "bytes",
          "name": "_data",
          "type": "bytes"
        }
      ],
      "name": "safeTransferFrom",
      "outputs": [],
      "stateMutability": "nonpayable",
      "type": "function"
    },
    {
      "inputs": [
        {
          "internalType": "address",
          "name": "operator",
          "type": "address"
        },
        {
          "internalType": "bool",
          "name": "approved",
          "type": "bool"
        }
      ],
      "name": "setApprovalForAll",
      "outputs": [],
      "stateMutability": "nonpayable",
      "type": "function"
    },
    {
      "inputs": [
        {
          "internalType": "bytes4",
          "name": "interfaceId",
          "type": "bytes4"
        }
      ],
      "name": "supportsInterface",
      "outputs": [
        {
          "internalType": "bool",
          "name": "",
          "type": "bool"
        }
      ],
      "stateMutability": "view",
      "type": "function"
    },
    {
      "inputs": [],
      "name": "symbol",
      "outputs": [
        {
          "internalType": "string",
          "name": "",
          "type": "string"
        }
      ],
      "stateMutability": "view",
      "type": "function"
    },
    {
      "inputs": [
        {
          "internalType": "uint256",
          "name": "tokenId",
          "type": "uint256"
        }
      ],
      "name": "tokenURI",
      "outputs": [
        {
          "internalType": "string",
          "name": "",
          "type": "string"
        }
      ],
      "stateMutability": "view",
      "type": "function"
    },
    {
      "inputs": [
        {
          "internalType": "address",
          "name": "from",
          "type": "address"
        },
        {
          "internalType": "address",
          "name": "to",
          "type": "address"
        },
        {
          "internalType": "uint256",
          "name": "tokenId",
          "type": "uint256"
        }
      ],
      "name": "transferFrom",
      "outputs": [],
      "stateMutability": "nonpayable",
      "type": "function"
    }
  ],
  "bytecode": "0x608060405260405180610160016040528061012f815260200162004b2d61012f9139600890805190602001906200003892919062000c9e565b50604051806101e001604052806040518060400160405280600981526020017f506f6c69746963616c000000000000000000000000000000000000000000000081525081526020016040518060400160405280600581526020017f576f6f7a7900000000000000000000000000000000000000000000000000000081525081526020016040518060400160405280600a81526020017f4e7574726974696f75730000000000000000000000000000000000000000000081525081526020016040518060400160405280600681526020017f416369646963000000000000000000000000000000000000000000000000000081525081526020016040518060400160405280600881526020017f496d6d696e656e7400000000000000000000000000000000000000000000000081525081526020016040518060400160405280600781526020017f5765616c7468790000000000000000000000000000000000000000000000000081525081526020016040518060400160405280600881526020017f446f75627466756c00000000000000000000000000000000000000000000000081525081526020016040518060400160405280600681526020017f4661756c7479000000000000000000000000000000000000000000000000000081525081526020016040518060400160405280600981526020017f5669766163696f7573000000000000000000000000000000000000000000000081525081526020016040518060400160405280600581526020017f466c616b7900000000000000000000000000000000000000000000000000000081525081526020016040518060400160405280600581526020017f476f646c7900000000000000000000000000000000000000000000000000000081525081526020016040518060400160405280600681526020017f456e74697265000000000000000000000000000000000000000000000000000081525081526020016040518060400160405280600881526020017f526f6d616e74696300000000000000000000000000000000000000000000000081525081526020016040518060400160405280600881526020017f4d696e646c65737300000000000000000000000000000000000000000000000081525081526020016040518060400160405280600a81526020017f456c656374726f6e696300000000000000000000000000000000000000000000815250815250600990600f620003ca92919062000d2f565b50604051806101e001604052806040518060400160405280600981526020017f5265616c6973746963000000000000000000000000000000000000000000000081525081526020016040518060400160405280600b81526020017f43616c63756c6174696e6700000000000000000000000000000000000000000081525081526020016040518060400160405280600681526020017f4d656c746564000000000000000000000000000000000000000000000000000081525081526020016040518060400160405280600481526020017f4d65616e0000000000000000000000000000000000000000000000000000000081525081526020016040518060400160405280600a81526020017f496d70726573736976650000000000000000000000000000000000000000000081525081526020016040518060400160405280600a81526020017f4576616e657363656e740000000000000000000000000000000000000000000081525081526020016040518060400160405280600981526020017f426f756e646c657373000000000000000000000000000000000000000000000081525081526020016040518060400160405280600681526020017f546177647279000000000000000000000000000000000000000000000000000081525081526020016040518060400160405280600881526020017f436f6e667573656400000000000000000000000000000000000000000000000081525081526020016040518060400160405280600581526020017f416c69766500000000000000000000000000000000000000000000000000000081525081526020016040518060400160405280600781526020017f467572746976650000000000000000000000000000000000000000000000000081525081526020016040518060400160405280600a81526020017f4f6d6e69736369656e740000000000000000000000000000000000000000000081525081526020016040518060400160405280600581526020017f507566667900000000000000000000000000000000000000000000000000000081525081526020016040518060400160405280600781526020017f4d7564646c65640000000000000000000000000000000000000000000000000081525081526020016040518060400160405280600b81526020017f456475636174696f6e616c000000000000000000000000000000000000000000815250815250600a90600f6200075c92919062000d2f565b50604051806101e001604052806040518060400160405280600681526020017f456e67696e65000000000000000000000000000000000000000000000000000081525081526020016040518060400160405280600781526020017f53657373696f6e0000000000000000000000000000000000000000000000000081525081526020016040518060400160405280600581526020017f4d7573696300000000000000000000000000000000000000000000000000000081525081526020016040518060400160405280600b81526020017f456e67696e656572696e6700000000000000000000000000000000000000000081525081526020016040518060400160405280600981526020017f486973746f7269616e000000000000000000000000000000000000000000000081525081526020016040518060400160405280600681526020017f576f726b6572000000000000000000000000000000000000000000000000000081525081526020016040518060400160405280600681526020017f5468726f6174000000000000000000000000000000000000000000000000000081525081526020016040518060400160405280600881526020017f536563757269747900000000000000000000000000000000000000000000000081525081526020016040518060400160405280600a81526020017f506f7373657373696f6e0000000000000000000000000000000000000000000081525081526020016040518060400160405280600481526020017f476f616c0000000000000000000000000000000000000000000000000000000081525081526020016040518060400160405280600581526020017f546f70696300000000000000000000000000000000000000000000000000000081525081526020016040518060400160405280600581526020017f486f6e657900000000000000000000000000000000000000000000000000000081525081526020016040518060400160405280600481526020017f4769726c0000000000000000000000000000000000000000000000000000000081525081526020016040518060400160405280600381526020017f576179000000000000000000000000000000000000000000000000000000000081525081526020016040518060400160405280600481526020017f4269726400000000000000000000000000000000000000000000000000000000815250815250600b90600f62000aee92919062000d2f565b5034801562000afc57600080fd5b506040518060400160405280600981526020017f5371756172654e465400000000000000000000000000000000000000000000008152506040518060400160405280600681526020017f5351554152450000000000000000000000000000000000000000000000000000815250816000908051906020019062000b8192919062000c9e565b50806001908051906020019062000b9a92919062000c9e565b50505062000bcc60405180606001604052806029815260200162004c5c6029913962000bd260201b6200112d1760201c565b62000f50565b62000c728160405160240162000be9919062000e64565b6040516020818303038152906040527f41304fac000000000000000000000000000000000000000000000000000000007bffffffffffffffffffffffffffffffffffffffffffffffffffffffff19166020820180517bffffffffffffffffffffffffffffffffffffffffffffffffffffffff838183161783525050505062000c7560201b60201c565b50565b60008151905060006a636f6e736f6c652e6c6f679050602083016000808483855afa5050505050565b82805462000cac9062000eda565b90600052602060002090601f01602090048101928262000cd0576000855562000d1c565b82601f1062000ceb57805160ff191683800117855562000d1c565b8280016001018555821562000d1c579182015b8281111562000d1b57825182559160200191906001019062000cfe565b5b50905062000d2b919062000d96565b5090565b82805482825590600052602060002090810192821562000d83579160200282015b8281111562000d8257825182908051906020019062000d7192919062000c9e565b509160200191906001019062000d50565b5b50905062000d92919062000db5565b5090565b5b8082111562000db157600081600090555060010162000d97565b5090565b5b8082111562000dd9576000818162000dcf919062000ddd565b5060010162000db6565b5090565b50805462000deb9062000eda565b6000825580601f1062000dff575062000e20565b601f01602090049060005260206000209081019062000e1f919062000d96565b5b50565b600062000e308262000e88565b62000e3c818562000e93565b935062000e4e81856020860162000ea4565b62000e598162000f3f565b840191505092915050565b6000602082019050818103600083015262000e80818462000e23565b905092915050565b600081519050919050565b600082825260208201905092915050565b60005b8381101562000ec457808201518184015260208101905062000ea7565b8381111562000ed4576000848401525b50505050565b6000600282049050600182168062000ef357607f821691505b6020821081141562000f0a5762000f0962000f10565b5b50919050565b7f4e487b7100000000000000000000000000000000000000000000000000000000600052602260045260246000fd5b6000601f19601f8301169050919050565b613bcd8062000f606000396000f3fe608060405234801561001057600080fd5b50600436106101165760003560e01c806395d89b41116100a2578063b88d4fde11610071578063b88d4fde14610317578063c575757a14610333578063c87b56dd14610363578063de9d132f14610393578063e985e9c51461039d57610116565b806395d89b411461027d578063a0f4312e1461029b578063a22cb465146102cb578063b187301f146102e757610116565b806323b872dd116100e957806323b872dd146101b55780632de38d68146101d157806342842e0e146102015780636352211e1461021d57806370a082311461024d57610116565b806301ffc9a71461011b57806306fdde031461014b578063081812fc14610169578063095ea7b314610199575b600080fd5b610135600480360381019061013091906126e4565b6103cd565b6040516101429190612da3565b60405180910390f35b6101536104af565b6040516101609190612dbe565b60405180910390f35b610183600480360381019061017e9190612736565b610541565b6040516101909190612d3c565b60405180910390f35b6101b360048036038101906101ae91906126a8565b6105c6565b005b6101cf60048036038101906101ca91906125a2565b6106de565b005b6101eb60048036038101906101e69190612736565b61073e565b6040516101f89190612dbe565b60405180910390f35b61021b600480360381019061021691906125a2565b610858565b005b61023760048036038101906102329190612736565b610878565b6040516102449190612d3c565b60405180910390f35b6102676004803603810190610262919061253d565b61092a565b6040516102749190613055565b60405180910390f35b6102856109e2565b6040516102929190612dbe565b60405180910390f35b6102b560048036038101906102b0919061275f565b610a74565b6040516102c29190612dbe565b60405180910390f35b6102e560048036038101906102e0919061266c565b610b06565b005b61030160048036038101906102fc9190612736565b610b1c565b60405161030e9190612dbe565b60405180910390f35b610331600480360381019061032c91906125f1565b610c36565b005b61034d60048036038101906103489190612736565b610c98565b60405161035a9190612dbe565b60405180910390f35b61037d60048036038101906103789190612736565b610db2565b60405161038a9190612dbe565b60405180910390f35b61039b610f04565b005b6103b760048036038101906103b29190612566565b611099565b6040516103c49190612da3565b60405180910390f35b60007f80ac58cd000000000000000000000000000000000000000000000000000000007bffffffffffffffffffffffffffffffffffffffffffffffffffffffff1916827bffffffffffffffffffffffffffffffffffffffffffffffffffffffff1916148061049857507f5b5e139f000000000000000000000000000000000000000000000000000000007bffffffffffffffffffffffffffffffffffffffffffffffffffffffff1916827bffffffffffffffffffffffffffffffffffffffffffffffffffffffff1916145b806104a857506104a7826111c6565b5b9050919050565b6060600080546104be90613346565b80601f01602080910402602001604051908101604052809291908181526020018280546104ea90613346565b80156105375780601f1061050c57610100808354040283529160200191610537565b820191906000526020600020905b81548152906001019060200180831161051a57829003601f168201915b5050505050905090565b600061054c82611230565b61058b576040517f08c379a000000000000000000000000000000000000000000000000000000000815260040161058290612fd5565b60405180910390fd5b6004600083815260200190815260200160002060009054906101000a900473ffffffffffffffffffffffffffffffffffffffff169050919050565b60006105d182610878565b90508073ffffffffffffffffffffffffffffffffffffffff168373ffffffffffffffffffffffffffffffffffffffff161415610642576040517f08c379a000000000000000000000000000000000000000000000000000000000815260040161063990613015565b60405180910390fd5b8073ffffffffffffffffffffffffffffffffffffffff1661066161129c565b73ffffffffffffffffffffffffffffffffffffffff161480610690575061068f8161068a61129c565b611099565b5b6106cf576040517f08c379a00000000000000000000000000000000000000000000000000000000081526004016106c690612f15565b60405180910390fd5b6106d983836112a4565b505050565b6106ef6106e961129c565b8261135d565b61072e576040517f08c379a000000000000000000000000000000000000000000000000000000000815260040161072590613035565b60405180910390fd5b61073983838361143b565b505050565b6060610851826009805480602002602001604051908101604052809291908181526020016000905b8282101561081257838290600052602060002001805461078590613346565b80601f01602080910402602001604051908101604052809291908181526020018280546107b190613346565b80156107fe5780601f106107d3576101008083540402835291602001916107fe565b820191906000526020600020905b8154815290600101906020018083116107e157829003601f168201915b505050505081526020019060010190610766565b505050506040518060400160405280600a81526020017f46495253545f574f524400000000000000000000000000000000000000000000815250610a74565b9050919050565b61087383838360405180602001604052806000815250610c36565b505050565b6000806002600084815260200190815260200160002060009054906101000a900473ffffffffffffffffffffffffffffffffffffffff169050600073ffffffffffffffffffffffffffffffffffffffff168173ffffffffffffffffffffffffffffffffffffffff161415610921576040517f08c379a000000000000000000000000000000000000000000000000000000000815260040161091890612f55565b60405180910390fd5b80915050919050565b60008073ffffffffffffffffffffffffffffffffffffffff168273ffffffffffffffffffffffffffffffffffffffff16141561099b576040517f08c379a000000000000000000000000000000000000000000000000000000000815260040161099290612f35565b60405180910390fd5b600360008373ffffffffffffffffffffffffffffffffffffffff1673ffffffffffffffffffffffffffffffffffffffff168152602001908152602001600020549050919050565b6060600180546109f190613346565b80601f0160208091040260200160405190810160405280929190818152602001828054610a1d90613346565b8015610a6a5780601f10610a3f57610100808354040283529160200191610a6a565b820191906000526020600020905b815481529060010190602001808311610a4d57829003601f168201915b5050505050905090565b60606000610aaa83610a85876116a2565b604051602001610a96929190612c46565b60405160208183030381529060405261184f565b9050835181610ab991906133f2565b9050838181518110610af4577f4e487b7100000000000000000000000000000000000000000000000000000000600052603260045260246000fd5b60200260200101519150509392505050565b610b18610b1161129c565b8383611882565b5050565b6060610c2f82600a805480602002602001604051908101604052809291908181526020016000905b82821015610bf0578382906000526020600020018054610b6390613346565b80601f0160208091040260200160405190810160405280929190818152602001828054610b8f90613346565b8015610bdc5780601f10610bb157610100808354040283529160200191610bdc565b820191906000526020600020905b815481529060010190602001808311610bbf57829003601f168201915b505050505081526020019060010190610b44565b505050506040518060400160405280600b81526020017f5345434f4e445f574f5244000000000000000000000000000000000000000000815250610a74565b9050919050565b610c47610c4161129c565b8361135d565b610c86576040517f08c379a0000000000000000000000000000000000000000000000000000000008152600401610c7d90613035565b60405180910390fd5b610c92848484846119ef565b50505050565b6060610dab82600b805480602002602001604051908101604052809291908181526020016000905b82821015610d6c578382906000526020600020018054610cdf90613346565b80601f0160208091040260200160405190810160405280929190818152602001828054610d0b90613346565b8015610d585780601f10610d2d57610100808354040283529160200191610d58565b820191906000526020600020905b815481529060010190602001808311610d3b57829003601f168201915b505050505081526020019060010190610cc0565b505050506040518060400160405280600a81526020017f54484952445f574f524400000000000000000000000000000000000000000000815250610a74565b9050919050565b6060610dbd82611230565b610dfc576040517f08c379a0000000000000000000000000000000000000000000000000000000008152600401610df390612fb5565b60405180910390fd5b6000600660008481526020019081526020016000208054610e1c90613346565b80601f0160208091040260200160405190810160405280929190818152602001828054610e4890613346565b8015610e955780601f10610e6a57610100808354040283529160200191610e95565b820191906000526020600020905b815481529060010190602001808311610e7857829003601f168201915b505050505090506000610ea6611a4b565b9050600081511415610ebc578192505050610eff565b600082511115610ef1578082604051602001610ed9929190612c46565b60405160208183030381529060405292505050610eff565b610efa84611a62565b925050505b919050565b6000610f106007611b09565b9050610f1c3382611b17565b610f3f604051806060016040528060258152602001613b33602591398233611b35565b6000610f4a8261073e565b610f5383610b1c565b610f5c84610c98565b604051602001610f6e93929190612c6a565b60405160208183030381529060405290506000600882604051602001610f95929190612c9b565b6040516020818303038152906040529050600082610fb283611bd4565b604051602001610fc3929190612cca565b60405160208183030381529060405290506000610fdf82611bd4565b604051602001610fef9190612d1a565b604051602081830303815290604052905061103f6040518060400160405280600781526020017f5356473a2025730000000000000000000000000000000000000000000000000081525084611d92565b61107e6040518060400160405280600c81526020017f546f6b656e5552493a202573000000000000000000000000000000000000000081525082611d92565b6110888582611e2e565b6110926007611ea2565b5050505050565b6000600560008473ffffffffffffffffffffffffffffffffffffffff1673ffffffffffffffffffffffffffffffffffffffff16815260200190815260200160002060008373ffffffffffffffffffffffffffffffffffffffff1673ffffffffffffffffffffffffffffffffffffffff16815260200190815260200160002060009054906101000a900460ff16905092915050565b6111c3816040516024016111419190612dbe565b6040516020818303038152906040527f41304fac000000000000000000000000000000000000000000000000000000007bffffffffffffffffffffffffffffffffffffffffffffffffffffffff19166020820180517bffffffffffffffffffffffffffffffffffffffffffffffffffffffff8381831617835250505050611eb8565b50565b60007f01ffc9a7000000000000000000000000000000000000000000000000000000007bffffffffffffffffffffffffffffffffffffffffffffffffffffffff1916827bffffffffffffffffffffffffffffffffffffffffffffffffffffffff1916149050919050565b60008073ffffffffffffffffffffffffffffffffffffffff166002600084815260200190815260200160002060009054906101000a900473ffffffffffffffffffffffffffffffffffffffff1673ffffffffffffffffffffffffffffffffffffffff1614159050919050565b600033905090565b816004600083815260200190815260200160002060006101000a81548173ffffffffffffffffffffffffffffffffffffffff021916908373ffffffffffffffffffffffffffffffffffffffff160217905550808273ffffffffffffffffffffffffffffffffffffffff1661131783610878565b73ffffffffffffffffffffffffffffffffffffffff167f8c5be1e5ebec7d5bd14f71427d1e84f3dd0314c0f7b2291e5b200ac8c7c3b92560405160405180910390a45050565b600061136882611230565b6113a7576040517f08c379a000000000000000000000000000000000000000000000000000000000815260040161139e90612ef5565b60405180910390fd5b60006113b283610878565b90508073ffffffffffffffffffffffffffffffffffffffff168473ffffffffffffffffffffffffffffffffffffffff16148061142157508373ffffffffffffffffffffffffffffffffffffffff1661140984610541565b73ffffffffffffffffffffffffffffffffffffffff16145b8061143257506114318185611099565b5b91505092915050565b8273ffffffffffffffffffffffffffffffffffffffff1661145b82610878565b73ffffffffffffffffffffffffffffffffffffffff16146114b1576040517f08c379a00000000000000000000000000000000000000000000000000000000081526004016114a890612e75565b60405180910390fd5b600073ffffffffffffffffffffffffffffffffffffffff168273ffffffffffffffffffffffffffffffffffffffff161415611521576040517f08c379a000000000000000000000000000000000000000000000000000000000815260040161151890612eb5565b60405180910390fd5b61152c838383611ee1565b6115376000826112a4565b6001600360008573ffffffffffffffffffffffffffffffffffffffff1673ffffffffffffffffffffffffffffffffffffffff1681526020019081526020016000206000828254611587919061325c565b925050819055506001600360008473ffffffffffffffffffffffffffffffffffffffff1673ffffffffffffffffffffffffffffffffffffffff16815260200190815260200160002060008282546115de919061317b565b92505081905550816002600083815260200190815260200160002060006101000a81548173ffffffffffffffffffffffffffffffffffffffff021916908373ffffffffffffffffffffffffffffffffffffffff160217905550808273ffffffffffffffffffffffffffffffffffffffff168473ffffffffffffffffffffffffffffffffffffffff167fddf252ad1be2c89b69c2b068fc378daa952ba7f163c4a11628f55a4df523b3ef60405160405180910390a461169d838383611ee6565b505050565b606060008214156116ea576040518060400160405280600181526020017f3000000000000000000000000000000000000000000000000000000000000000815250905061184a565b600082905060005b6000821461171c578080611705906133a9565b915050600a8261171591906131d1565b91506116f2565b60008167ffffffffffffffff81111561175e577f4e487b7100000000000000000000000000000000000000000000000000000000600052604160045260246000fd5b6040519080825280601f01601f1916602001820160405280156117905781602001600182028036833780820191505090505b5090505b60008514611843576001826117a9919061325c565b9150600a856117b891906133f2565b60306117c4919061317b565b60f81b818381518110611800577f4e487b7100000000000000000000000000000000000000000000000000000000600052603260045260246000fd5b60200101907effffffffffffffffffffffffffffffffffffffffffffffffffffffffffffff1916908160001a905350600a8561183c91906131d1565b9450611794565b8093505050505b919050565b6000816040516020016118629190612c2f565b6040516020818303038152906040528051906020012060001c9050919050565b8173ffffffffffffffffffffffffffffffffffffffff168373ffffffffffffffffffffffffffffffffffffffff1614156118f1576040517f08c379a00000000000000000000000000000000000000000000000000000000081526004016118e890612ed5565b60405180910390fd5b80600560008573ffffffffffffffffffffffffffffffffffffffff1673ffffffffffffffffffffffffffffffffffffffff16815260200190815260200160002060008473ffffffffffffffffffffffffffffffffffffffff1673ffffffffffffffffffffffffffffffffffffffff16815260200190815260200160002060006101000a81548160ff0219169083151502179055508173ffffffffffffffffffffffffffffffffffffffff168373ffffffffffffffffffffffffffffffffffffffff167f17307eab39ab6107e8899845ad3d59bd9653f200f220920489ca2b5937696c31836040516119e29190612da3565b60405180910390a3505050565b6119fa84848461143b565b611a0684848484611eeb565b611a45576040517f08c379a0000000000000000000000000000000000000000000000000000000008152600401611a3c90612e55565b60405180910390fd5b50505050565b606060405180602001604052806000815250905090565b6060611a6d82611230565b611aac576040517f08c379a0000000000000000000000000000000000000000000000000000000008152600401611aa390612ff5565b60405180910390fd5b6000611ab6611a4b565b90506000815111611ad65760405180602001604052806000815250611b01565b80611ae0846116a2565b604051602001611af1929190612c46565b6040516020818303038152906040525b915050919050565b600081600001549050919050565b611b31828260405180602001604052806000815250612082565b5050565b611bcf838383604051602401611b4d93929190612e17565b6040516020818303038152906040527fe3849f79000000000000000000000000000000000000000000000000000000007bffffffffffffffffffffffffffffffffffffffffffffffffffffffff19166020820180517bffffffffffffffffffffffffffffffffffffffffffffffffffffffff8381831617835250505050611eb8565b505050565b60606000825190506000811415611bfd5760405180602001604052806000815250915050611d8d565b60006003600283611c0e919061317b565b611c1891906131d1565b6004611c249190613202565b90506000602082611c35919061317b565b67ffffffffffffffff811115611c74577f4e487b7100000000000000000000000000000000000000000000000000000000600052604160045260246000fd5b6040519080825280601f01601f191660200182016040528015611ca65781602001600182028036833780820191505090505b5090506000604051806060016040528060408152602001613b58604091399050600181016020830160005b86811015611d4a5760038101905062ffffff818a015116603f8160121c168401518060081b905060ff603f83600c1c1686015116810190508060081b905060ff603f8360061c1686015116810190508060081b905060ff603f831686015116810190508060e01b90508084526004840193505050611cd1565b506003860660018114611d645760028114611d7457611d7f565b613d3d60f01b6002830352611d7f565b603d60f81b60018303525b508484525050819450505050505b919050565b611e2a8282604051602401611da8929190612de0565b6040516020818303038152906040527f4b5c4277000000000000000000000000000000000000000000000000000000007bffffffffffffffffffffffffffffffffffffffffffffffffffffffff19166020820180517bffffffffffffffffffffffffffffffffffffffffffffffffffffffff8381831617835250505050611eb8565b5050565b611e3782611230565b611e76576040517f08c379a0000000000000000000000000000000000000000000000000000000008152600401611e6d90612f75565b60405180910390fd5b80600660008481526020019081526020016000209080519060200190611e9d9291906122da565b505050565b6001816000016000828254019250508190555050565b60008151905060006a636f6e736f6c652e6c6f679050602083016000808483855afa5050505050565b505050565b505050565b6000611f0c8473ffffffffffffffffffffffffffffffffffffffff166120dd565b15612075578373ffffffffffffffffffffffffffffffffffffffff1663150b7a02611f3561129c565b8786866040518563ffffffff1660e01b8152600401611f579493929190612d57565b602060405180830381600087803b158015611f7157600080fd5b505af1925050508015611fa257506040513d601f19601f82011682018060405250810190611f9f919061270d565b60015b612025573d8060008114611fd2576040519150601f19603f3d011682016040523d82523d6000602084013e611fd7565b606091505b5060008151141561201d576040517f08c379a000000000000000000000000000000000000000000000000000000000815260040161201490612e55565b60405180910390fd5b805181602001fd5b63150b7a0260e01b7bffffffffffffffffffffffffffffffffffffffffffffffffffffffff1916817bffffffffffffffffffffffffffffffffffffffffffffffffffffffff19161491505061207a565b600190505b949350505050565b61208c8383612100565b6120996000848484611eeb565b6120d8576040517f08c379a00000000000000000000000000000000000000000000000000000000081526004016120cf90612e55565b60405180910390fd5b505050565b6000808273ffffffffffffffffffffffffffffffffffffffff163b119050919050565b600073ffffffffffffffffffffffffffffffffffffffff168273ffffffffffffffffffffffffffffffffffffffff161415612170576040517f08c379a000000000000000000000000000000000000000000000000000000000815260040161216790612f95565b60405180910390fd5b61217981611230565b156121b9576040517f08c379a00000000000000000000000000000000000000000000000000000000081526004016121b090612e95565b60405180910390fd5b6121c560008383611ee1565b6001600360008473ffffffffffffffffffffffffffffffffffffffff1673ffffffffffffffffffffffffffffffffffffffff1681526020019081526020016000206000828254612215919061317b565b92505081905550816002600083815260200190815260200160002060006101000a81548173ffffffffffffffffffffffffffffffffffffffff021916908373ffffffffffffffffffffffffffffffffffffffff160217905550808273ffffffffffffffffffffffffffffffffffffffff16600073ffffffffffffffffffffffffffffffffffffffff167fddf252ad1be2c89b69c2b068fc378daa952ba7f163c4a11628f55a4df523b3ef60405160405180910390a46122d660008383611ee6565b5050565b8280546122e690613346565b90600052602060002090601f016020900481019282612308576000855561234f565b82601f1061232157805160ff191683800117855561234f565b8280016001018555821561234f579182015b8281111561234e578251825591602001919060010190612333565b5b50905061235c9190612360565b5090565b5b80821115612379576000816000905550600101612361565b5090565b600061239061238b84613095565b613070565b9050808382526020820190508260005b858110156123d057813585016123b688826124fe565b8452602084019350602083019250506001810190506123a0565b5050509392505050565b60006123ed6123e8846130c1565b613070565b90508281526020810184848401111561240557600080fd5b612410848285613304565b509392505050565b600061242b612426846130f2565b613070565b90508281526020810184848401111561244357600080fd5b61244e848285613304565b509392505050565b60008135905061246581613ad6565b92915050565b600082601f83011261247c57600080fd5b813561248c84826020860161237d565b91505092915050565b6000813590506124a481613aed565b92915050565b6000813590506124b981613b04565b92915050565b6000815190506124ce81613b04565b92915050565b600082601f8301126124e557600080fd5b81356124f58482602086016123da565b91505092915050565b600082601f83011261250f57600080fd5b813561251f848260208601612418565b91505092915050565b60008135905061253781613b1b565b92915050565b60006020828403121561254f57600080fd5b600061255d84828501612456565b91505092915050565b6000806040838503121561257957600080fd5b600061258785828601612456565b925050602061259885828601612456565b9150509250929050565b6000806000606084860312156125b757600080fd5b60006125c586828701612456565b93505060206125d686828701612456565b92505060406125e786828701612528565b9150509250925092565b6000806000806080858703121561260757600080fd5b600061261587828801612456565b945050602061262687828801612456565b935050604061263787828801612528565b925050606085013567ffffffffffffffff81111561265457600080fd5b612660878288016124d4565b91505092959194509250565b6000806040838503121561267f57600080fd5b600061268d85828601612456565b925050602061269e85828601612495565b9150509250929050565b600080604083850312156126bb57600080fd5b60006126c985828601612456565b92505060206126da85828601612528565b9150509250929050565b6000602082840312156126f657600080fd5b6000612704848285016124aa565b91505092915050565b60006020828403121561271f57600080fd5b600061272d848285016124bf565b91505092915050565b60006020828403121561274857600080fd5b600061275684828501612528565b91505092915050565b60008060006060848603121561277457600080fd5b600061278286828701612528565b935050602084013567ffffffffffffffff81111561279f57600080fd5b6127ab8682870161246b565b925050604084013567ffffffffffffffff8111156127c857600080fd5b6127d4868287016124fe565b9150509250925092565b6127e781613290565b82525050565b6127f6816132a2565b82525050565b600061280782613138565b612811818561314e565b9350612821818560208601613313565b61282a816134df565b840191505092915050565b600061284082613143565b61284a818561315f565b935061285a818560208601613313565b612863816134df565b840191505092915050565b600061287982613143565b6128838185613170565b9350612893818560208601613313565b80840191505092915050565b600081546128ac81613346565b6128b68186613170565b945060018216600081146128d157600181146128e257612915565b60ff19831686528186019350612915565b6128eb85613123565b60005b8381101561290d578154818901526001820191506020810190506128ee565b838801955050505b50505092915050565b600061292b60328361315f565b9150612936826134f0565b604082019050919050565b600061294e60258361315f565b91506129598261353f565b604082019050919050565b6000612971600b83613170565b915061297c8261358e565b600b82019050919050565b6000612994601c8361315f565b915061299f826135b7565b602082019050919050565b60006129b760248361315f565b91506129c2826135e0565b604082019050919050565b60006129da60198361315f565b91506129e58261362f565b602082019050919050565b60006129fd600383613170565b9150612a0882613658565b600382019050919050565b6000612a20604883613170565b9150612a2b82613681565b604882019050919050565b6000612a43602c8361315f565b9150612a4e826136f6565b604082019050919050565b6000612a66600d83613170565b9150612a7182613745565b600d82019050919050565b6000612a8960388361315f565b9150612a948261376e565b604082019050919050565b6000612aac602a8361315f565b9150612ab7826137bd565b604082019050919050565b6000612acf60298361315f565b9150612ada8261380c565b604082019050919050565b6000612af2602e8361315f565b9150612afd8261385b565b604082019050919050565b6000612b15602483613170565b9150612b20826138aa565b602482019050919050565b6000612b3860208361315f565b9150612b43826138f9565b602082019050919050565b6000612b5b60318361315f565b9150612b6682613922565b604082019050919050565b6000612b7e602c8361315f565b9150612b8982613971565b604082019050919050565b6000612ba1602f8361315f565b9150612bac826139c0565b604082019050919050565b6000612bc460218361315f565b9150612bcf82613a0f565b604082019050919050565b6000612be7601d83613170565b9150612bf282613a5e565b601d82019050919050565b6000612c0a60318361315f565b9150612c1582613a87565b604082019050919050565b612c29816132fa565b82525050565b6000612c3b828461286e565b915081905092915050565b6000612c52828561286e565b9150612c5e828461286e565b91508190509392505050565b6000612c76828661286e565b9150612c82828561286e565b9150612c8e828461286e565b9150819050949350505050565b6000612ca7828561289f565b9150612cb3828461286e565b9150612cbe82612a59565b91508190509392505050565b6000612cd582612964565b9150612ce1828561286e565b9150612cec82612a13565b9150612cf782612b08565b9150612d03828461286e565b9150612d0e826129f0565b91508190509392505050565b6000612d2582612bda565b9150612d31828461286e565b915081905092915050565b6000602082019050612d5160008301846127de565b92915050565b6000608082019050612d6c60008301876127de565b612d7960208301866127de565b612d866040830185612c20565b8181036060830152612d9881846127fc565b905095945050505050565b6000602082019050612db860008301846127ed565b92915050565b60006020820190508181036000830152612dd88184612835565b905092915050565b60006040820190508181036000830152612dfa8185612835565b90508181036020830152612e0e8184612835565b90509392505050565b60006060820190508181036000830152612e318186612835565b9050612e406020830185612c20565b612e4d60408301846127de565b949350505050565b60006020820190508181036000830152612e6e8161291e565b9050919050565b60006020820190508181036000830152612e8e81612941565b9050919050565b60006020820190508181036000830152612eae81612987565b9050919050565b60006020820190508181036000830152612ece816129aa565b9050919050565b60006020820190508181036000830152612eee816129cd565b9050919050565b60006020820190508181036000830152612f0e81612a36565b9050919050565b60006020820190508181036000830152612f2e81612a7c565b9050919050565b60006020820190508181036000830152612f4e81612a9f565b9050919050565b60006020820190508181036000830152612f6e81612ac2565b9050919050565b60006020820190508181036000830152612f8e81612ae5565b9050919050565b60006020820190508181036000830152612fae81612b2b565b9050919050565b60006020820190508181036000830152612fce81612b4e565b9050919050565b60006020820190508181036000830152612fee81612b71565b9050919050565b6000602082019050818103600083015261300e81612b94565b9050919050565b6000602082019050818103600083015261302e81612bb7565b9050919050565b6000602082019050818103600083015261304e81612bfd565b9050919050565b600060208201905061306a6000830184612c20565b92915050565b600061307a61308b565b90506130868282613378565b919050565b6000604051905090565b600067ffffffffffffffff8211156130b0576130af6134b0565b5b602082029050602081019050919050565b600067ffffffffffffffff8211156130dc576130db6134b0565b5b6130e5826134df565b9050602081019050919050565b600067ffffffffffffffff82111561310d5761310c6134b0565b5b613116826134df565b9050602081019050919050565b60008190508160005260206000209050919050565b600081519050919050565b600081519050919050565b600082825260208201905092915050565b600082825260208201905092915050565b600081905092915050565b6000613186826132fa565b9150613191836132fa565b9250827fffffffffffffffffffffffffffffffffffffffffffffffffffffffffffffffff038211156131c6576131c5613423565b5b828201905092915050565b60006131dc826132fa565b91506131e7836132fa565b9250826131f7576131f6613452565b5b828204905092915050565b600061320d826132fa565b9150613218836132fa565b9250817fffffffffffffffffffffffffffffffffffffffffffffffffffffffffffffffff048311821515161561325157613250613423565b5b828202905092915050565b6000613267826132fa565b9150613272836132fa565b92508282101561328557613284613423565b5b828203905092915050565b600061329b826132da565b9050919050565b60008115159050919050565b60007fffffffff0000000000000000000000000000000000000000000000000000000082169050919050565b600073ffffffffffffffffffffffffffffffffffffffff82169050919050565b6000819050919050565b82818337600083830152505050565b60005b83811015613331578082015181840152602081019050613316565b83811115613340576000848401525b50505050565b6000600282049050600182168061335e57607f821691505b6020821081141561337257613371613481565b5b50919050565b613381826134df565b810181811067ffffffffffffffff821117156133a05761339f6134b0565b5b80604052505050565b60006133b4826132fa565b91507fffffffffffffffffffffffffffffffffffffffffffffffffffffffffffffffff8214156133e7576133e6613423565b5b600182019050919050565b60006133fd826132fa565b9150613408836132fa565b92508261341857613417613452565b5b828206905092915050565b7f4e487b7100000000000000000000000000000000000000000000000000000000600052601160045260246000fd5b7f4e487b7100000000000000000000000000000000000000000000000000000000600052601260045260246000fd5b7f4e487b7100000000000000000000000000000000000000000000000000000000600052602260045260246000fd5b7f4e487b7100000000000000000000000000000000000000000000000000000000600052604160045260246000fd5b6000601f19601f8301169050919050565b7f4552433732313a207472616e7366657220746f206e6f6e20455243373231526560008201527f63656976657220696d706c656d656e7465720000000000000000000000000000602082015250565b7f4552433732313a207472616e736665722066726f6d20696e636f72726563742060008201527f6f776e6572000000000000000000000000000000000000000000000000000000602082015250565b7f7b20226e616d65223a2022000000000000000000000000000000000000000000600082015250565b7f4552433732313a20746f6b656e20616c7265616479206d696e74656400000000600082015250565b7f4552433732313a207472616e7366657220746f20746865207a65726f2061646460008201527f7265737300000000000000000000000000000000000000000000000000000000602082015250565b7f4552433732313a20617070726f766520746f2063616c6c657200000000000000600082015250565b7f22207d0000000000000000000000000000000000000000000000000000000000600082015250565b7f222c20226465736372697074696f6e223a2022416e204e46542066726f6d207460008201527f686520686967686c79206163636c61696d65642073717561726520636f6c6c6560208201527f6374696f6e222c20000000000000000000000000000000000000000000000000604082015250565b7f4552433732313a206f70657261746f7220717565727920666f72206e6f6e657860008201527f697374656e7420746f6b656e0000000000000000000000000000000000000000602082015250565b7f3c2f746578743e3c2f7376673e00000000000000000000000000000000000000600082015250565b7f4552433732313a20617070726f76652063616c6c6572206973206e6f74206f7760008201527f6e6572206e6f7220617070726f76656420666f7220616c6c0000000000000000602082015250565b7f4552433732313a2062616c616e636520717565727920666f7220746865207a6560008201527f726f206164647265737300000000000000000000000000000000000000000000602082015250565b7f4552433732313a206f776e657220717565727920666f72206e6f6e657869737460008201527f656e7420746f6b656e0000000000000000000000000000000000000000000000602082015250565b7f45524337323155524953746f726167653a2055524920736574206f66206e6f6e60008201527f6578697374656e7420746f6b656e000000000000000000000000000000000000602082015250565b7f22696d616765223a2022646174613a696d6167652f7376672b786d6c3b62617360008201527f6536342c00000000000000000000000000000000000000000000000000000000602082015250565b7f4552433732313a206d696e7420746f20746865207a65726f2061646472657373600082015250565b7f45524337323155524953746f726167653a2055524920717565727920666f722060008201527f6e6f6e6578697374656e7420746f6b656e000000000000000000000000000000602082015250565b7f4552433732313a20617070726f76656420717565727920666f72206e6f6e657860008201527f697374656e7420746f6b656e0000000000000000000000000000000000000000602082015250565b7f4552433732314d657461646174613a2055524920717565727920666f72206e6f60008201527f6e6578697374656e7420746f6b656e0000000000000000000000000000000000602082015250565b7f4552433732313a20617070726f76616c20746f2063757272656e74206f776e6560008201527f7200000000000000000000000000000000000000000000000000000000000000602082015250565b7f646174613a6170706c69636174696f6e2f6a736f6e3b6261736536342c000000600082015250565b7f4552433732313a207472616e736665722063616c6c6572206973206e6f74206f60008201527f776e6572206e6f7220617070726f766564000000000000000000000000000000602082015250565b613adf81613290565b8114613aea57600080fd5b50565b613af6816132a2565b8114613b0157600080fd5b50565b613b0d816132ae565b8114613b1857600080fd5b50565b613b24816132fa565b8114613b2f57600080fd5b5056fe416e204e465420772f20494420256420686173206265656e206d696e74656420746f2025734142434445464748494a4b4c4d4e4f505152535455565758595a6162636465666768696a6b6c6d6e6f707172737475767778797a303132333435363738392b2fa2646970667358221220e2fcd37da79415e88bffda4eee97e29adc2a06ebb4275edd26ca32bcefe60f1664736f6c634300080100333c73766720786d6c6e733d27687474703a2f2f7777772e77332e6f72672f323030302f73766727207072657365727665417370656374526174696f3d27784d696e594d696e206d656574272076696577426f783d273020302033353020333530273e3c7374796c653e2e62617365207b2066696c6c3a2077686974653b20666f6e742d66616d696c793a2073657269663b20666f6e742d73697a653a20323470783b207d3c2f7374796c653e3c726563742077696474683d273130302527206865696768743d2731303025272066696c6c3d27626c61636b27202f3e3c7465787420783d273530252720793d273530252720636c6173733d27626173652720646f6d696e616e742d626173656c696e653d276d6964646c652720746578742d616e63686f723d276d6964646c65273e54686973206973206d79204e4654204570696320547269707320636f6e74726163742e20576f616821",
  "linkReferences": {},
  "deployedLinkReferences": {}
}